:020000040800F2
:10000000B00700200905000861020008630200082B
:10001000670200086B0200086F0200080000000081
:100020000000000000000000000000007302000853
:10003000750200080000000077020008790200083D
:1000400023050008230500082305000823050008F0
:1000500023050008230500082305000823050008E0
:1000600023050008230500082305000823050008D0
:1000700023050008230500082305000823050008C0
:1000800023050008230500082305000823050008B0
:1000900023050008230500082305000823050008A0
:1000A0002305000823050008230500082305000890
:1000B000232400088D25000853210008230500088B
:1000C0002305000823050008230500082305000870
:1000D0002305000823050008072900082305000858
:1000E0002305000823050008230500082305000850
:1000F0002305000823050008230500082305000840
:100100002305000823050008BF2100082305000877
:10011000230500082305000823050008230500081F
:10012000230500082305000823050008230500080F
:1001300000F002F800F03CF80AA090E8000C8244BD
:100140008344AAF10107DA4501D100F031F8AFF29A
:10015000090EBAE80F0013F0010F18BFFB1A43F0A5
:10016000010318477831000098310000103A24BF8D
:1001700078C878C1FAD8520724BF30C830C144BF0C
:1001800004680C607047000000230024002500264E
:10019000103A28BF78C1FBD8520728BF30C148BFEA
:1001A0000B6070471FB503F08CF81FBD10B510BD74
:1001B00002F085FC1146FFF7F5FF00F009F802F0A8
:1001C000A3FC03B4FFF7F2FF03BC02F0ABFC00009A
:1001D00002F02AFA02F02EFA02F002FA41F61F416A
:1001E00040F2F31001F089FF41F61F4141F28730E0
:1001F00001F056FF00214FF6FF7002F0B1F8002128
:100200004FF6FF7002F06CF94FF4E13002F074FA2F
:1002100001F0F2FF02F047F8002002F01CF8002085
:1002200002F070F817E000200B4908604FF0010061
:100230000A49C1F88C014FF4FA7002F032FA012039
:10024000054908604FF000000449C1F88C014FF4E3
:10025000FA7002F026FAE6E7880123420000234202
:10026000704700BFFEE700BFFEE700BFFEE700BF2C
:10027000FEE770477047704770470000002100207C
:10028000674A126842F48032654B1A6000BF644AC4
:10029000126802F40030491C10B9B1F5A06FF6D114
:1002A0005F4A126812F4003F01D0012000E00020F4
:1002B000012842D15B4A126842F01002594B1A6081
:1002C0001A46126822F003021A601A46126842F0B7
:1002D00002021A60524A5268514B5A601A465268DA
:1002E0005A601A46526842F480625A601A4652684E
:1002F00022F47C125A601A46526842F4E8125A609C
:100300001A46126842F080721A6000BF444A1268AE
:1003100012F0007FFAD0424A526822F00302404BAA
:100320005A601A46526842F002025A6000BF3C4AC4
:10033000526802F00C02082AF9D1704710B5FFF795
:100340009DFF10BD10B53648006840F001003449EB
:10035000086008464068344908403149486008460A
:100360000068324908402E4908600846006820F4B9
:10037000802008600846406820F4FE0048604FF482
:100380001F008860FFF7DAFF4FF00060284908601F
:1003900010BD10B5002100200022214B5B6803F046
:1003A0000C0121B1042906D0082928D107E0214BEE
:1003B000214C236027E01F4B1F4C236023E0184B88
:1003C0005B6803F47010164B5B6803F48032022301
:1003D00003EB904022B9194B4343174C23600DE0C7
:1003E0000F4B5B6813F4003F04D0144B4343124C93
:1003F000236003E00F4B43430F4C236003E00D4B9E
:100400000D4C236000BF00BF054B5B68C3F30313B3
:100410000B4CE15C084B1B68CB40074C236010BDC4
:1004200000100240002002400000FFF8FFFFF6FE2F
:1004300008ED00E000127A000000002000093D00F5
:10044000040000200A2070470520704725490870E5
:1004500070472448007870470A2901DA224A50542C
:10046000704701460A2902DA1F48405C7047552050
:10047000FCE71E49B1FBF0F11D4A118070471C4892
:10048000008870471949B1FBF0F11A4A1180704792
:1004900018480088704718480088401C1649088092
:1004A000704715480088704700201349088070473E
:1004B000124908807047114800887047104800882A
:1004C000401C0F49088070470D4800887047002085
:1004D0000B49088070470B4908807047094800881D
:1004E00070470000140000209C000020FFA14A0477
:1004F00016000020180000201A0000201E00002016
:100500001C000020200000200948804709480047BF
:10051000FEE7FEE7FEE7FEE7FEE7FEE7FEE7FEE7B3
:10052000FEE7FEE704480549054A064B7047000010
:100530004503000831010008B0010020B007002089
:10054000B0030020B003002036490143364A116051
:10055000704770B5002100230F22C4784CB3324C91
:10056000246804F4E064C4F5E0644FEA1421C1F1A6
:10057000040322FA01F2447804FA03F1847804EACD
:10058000020444EA01014FEA0111284C0678A15502
:10059000047804F01F054FF0010404FA05F405780F
:1005A0004FEA65154FF0E02606EB8505C5F80041DA
:1005B00009E0047804F01F050124AC401C4D0678C6
:1005C000761145F8264070BD1A4A0A4002431A4B7C
:1005D0001A60704741B1194A126842EA00024FF0AE
:1005E000E023C3F8102D07E0144A126822EA000243
:1005F0004FF0E023C3F8102D7047042808D14FF0C6
:10060000E021096941F004014FF0E022116107E0A7
:100610004FF0E021096921F004014FF0E02211615F
:10062000704700000000FA050CED00E000E400E077
:1006300080E100E080FFFF1F08ED00E010ED00E02A
:1006400010B50121480700F009FC00214FF00050CF
:1006500000F004FC10BD30B5002200235F4C22687E
:1006600040F6FE7404FA00F422EA0402D1E90045DF
:1006700044EA05048D6844EA0504CD6844EA0503AC
:1006800003FA00F444EA0202554CC4F8002430BDD9
:100690000021016041608160C160704759B14F4ADB
:1006A00012684FF0010303FA00F342EA03024C4BD5
:1006B000C3F800240AE0494A12684FF0010303FA24
:1006C00000F322EA0302464BC3F80024704759B1F5
:1006D000424A12684FF4805303FA00F342EA0302DD
:1006E0003F4BC3F800240AE03C4A12684FF48053A1
:1006F00003FA00F322EA0302394BC3F800247047DF
:1007000010B569B1374A12684FEA10144FF001036F
:1007100003FA04F342EA0302314BC3F804240CE069
:10072000304A12684FEA10144FF0010303FA04F341
:1007300022EA03022A4BC3F8042410BD38B1294928
:10074000096841F00301264AC2F8041406E025496D
:10075000096821F00301224AC2F80414704710B559
:100760004AB11E4B1B6801FA00F443EA04031C4C17
:10077000C4F8003408E0194B1B6801FA00F423EABE
:100780000403174CC4F8003410BD0022134A00F1D2
:1007900008031A44116070470022104A00F1140344
:1007A0001A441160704730B500240023082802D194
:1007B00042EA012401E042EA0144084B00F120052D
:1007C0002B441C6030BD01460022044A2C2000EB63
:1007D00091000244106880B270470000007400402D
:1007E000007000400474004010B50446CA488442BA
:1007F00008D10121042000F024FB0021042000F096
:1008000020FB46E0C548844208D10121082000F0C1
:1008100018FB0021082000F014FB3AE0C048844295
:1008200008D10121102000F00CFB0021102000F065
:1008300008FB2EE0BB48844208D10121202000F0B3
:1008400000FB0021202000F0FCFA22E0B6488442A0
:1008500008D10121402000F0F4FA0021402000F0EE
:10086000F0FA16E0B148844208D10121802000F05E
:10087000E8FA0021802000F0E4FA0AE0AC48844263
:1008800007D10121801500F0DCFA0021A01500F04D
:10089000D8FA10BD10B50121084600F0D2FA0021A7
:1008A000012000F0CEFA10BD2DE9F04102460025EE
:1008B0000026002000230024002791F803C00CF03C
:1008C0000F0591F803C01CF0100F03D091F802C07F
:1008D0004CEA0505B1F800C01CF0FF0F31D01468D8
:1008E00000202BE04FF0010C0CFA00F3B1F800C02F
:1008F0000CEA03069E4220D183004FF00F0C0CFA45
:1009000003F7BC4305FA03FC4CEA040491F803C066
:10091000BCF1280F06D14FF0010C0CFA00FCC2F814
:1009200014C00AE091F803C0BCF1480F05D14FF0A4
:10093000010C0CFA00FCC2F810C0401C0828D1D3EE
:100940001460B1F800C0BCF1FF0F34DD5468002022
:100950002EE000F1080C4FF0010808FA0CF3B1F892
:1009600000C00CEA03069E4221D183004FF00F0C19
:100970000CFA03F7BC4305FA03FC4CEA040491F8B3
:1009800003C0BCF1280F05D100F1080C08FA0CF8DF
:10099000C2F8148091F803C0BCF1480F07D100F1F0
:1009A000080C4FF0010808FA0CF8C2F81080401C3F
:1009B0000828CED35460BDE8F0814FF6FF71018066
:1009C000022181700421C1707047024600209368A3
:1009D0000B4201D0012000E00020704701468868EA
:1009E00080B2704702460020D3680B4201D001203C
:1009F00000E0002070470146C86880B2704701617E
:100A00007047416170470AB1016100E04161704780
:100A1000C16070474FF480320A4382618161826114
:100A200082698269704702460020424B18684FF67F
:100A30008073184040EA021008433E4B186070472C
:100A40003D49C8617047F0B50A46002300240021E3
:100A5000002500F00046B6F1004F02D1354EF16995
:100A600001E0344E7168C0F3034583B200F44016D0
:100A7000B6F5401F08D121F070612E4E766826F041
:100A800070662C4F7E6012E000F48016B6F5801F71
:100A900006D1032606FA05F4A14341F0706106E091
:100AA000460D360103FA06F6B14341F0706122B1FA
:100AB000460D360103FA06F6314300F00046B6F162
:100AC000004F02D11B4EF16101E01A4E7160F0BD82
:100AD00030B500228B071C0F0F2303FA04F2154BCD
:100AE00008338C1053F824309343124C08348D1083
:100AF00044F8253023468C1053F824308C07240FFB
:100B000000FA04F423430B4C08348D1044F82530CC
:100B100030BD0A490860704700080140000C0140E0
:100B2000001001400014014000180140001C014069
:100B3000002001400000014000002042DC00204273
:100B4000DB48006840F00100D94908600846406869
:100B5000D8490840D649486008460068D649084048
:100B6000D34908600846006820F4802008600846E1
:100B7000406820F4FE0048604FF41F008860704712
:100B8000CB49096821F48031C94A116011460968CE
:100B900021F480211160B0F5803F03D0B0F5802FA3
:100BA0000ED106E0C249096841F48031C04A1160A3
:100BB00007E0BF49096841F4A021BD4A116000E087
:100BC00000BF00BF704710B501460022002300207F
:100BD0004A11012A02D1B64C236806E0022A02D14A
:100BE000B34C236A01E0B24C636A01F01F02012496
:100BF00094401C4201D0012000E0002010BD70B5DF
:100C000000240025002600BF3120FFF7DCFF064648
:100C1000641CB4F5A06F01D0002EF5D03120FFF791
:100C2000D2FF08B1012500E00025284670BD01462D
:100C300000209F4A106820F0F80040EAC1001060D0
:100C400070479E490860704702460020984B5868DC
:100C500020F47C1042EA01031843954B586070471A
:100C600096490866704701460020914A506820F076
:100C700003000843506070478D48406800F00C0046
:100C80007047014600208A4A506820F0F00008436F
:100C90005060704701460020854A506820F4E060AB
:100CA00008435060704701460020814A506820F494
:100CB000605040EAC1005060704729B17C4A527AC6
:100CC00002437B4B5A7206E0794A527AC343DBB245
:100CD0001A40774B5A72704779490860704701464D
:100CE0000020734A506820F4404008435060704729
:100CF0000021744A11706E4A82F82010012802D037
:100D0000042808D103E001216E4A117004E0052196
:100D10006C4A117000E000BF00BF70476A4908606C
:100D200070476349096A0143614A11627047674924
:100D30000860704730B500210022002400235C4D7C
:100D40006D6805F00C0121B1042905D0082923D1D3
:100D500005E05F4D056022E05D4D05601FE0544DEC
:100D60006D6805F47012524D6D6805F480340225EB
:100D700005EB92421CB9574D554305600BE04C4DB5
:100D80006D6815F4003F03D0524D5543056002E0F5
:100D90004F4D5543056002E04D4D056000BF00BF5B
:100DA000434D6D6805F0F00109094B4D6B5C05681A
:100DB000DD4045603E4D6D6805F4E061090A464D31
:100DC0006B5C4568DD408560394D6D6805F46051A8
:100DD000C90A414D6B5C4568DD40C560344D6D68A6
:100DE00005F44041890B3D4D6B5CC568B5FBF3F5DF
:100DF000056130BD29B12E4A526902432C4B5A611C
:100E000004E02B4A52698243294B5A61704729B149
:100E1000274A92690243264B9A6104E0244A926968
:100E20008243234B9A61704729B1214AD269024318
:100E30001F4BDA6104E01E4AD26982431C4BDA611F
:100E4000704729B11A4AD2680243194BDA6004E0AC
:100E5000174AD2688243164BDA60704729B1144AA8
:100E600012690243124B1A6104E0114A126982436B
:100E70000F4B1A6170471A49086070470F49C864E0
:100E800070470B49C87170470948406A40F080704C
:100E900007494862704701460020054A92680A42A5
:100EA00001D0012000E0002070470149887270479E
:100EB000001002400000FFF8FFFFF6FE0000424273
:100EC000D800424220100240800442423C04424288
:100ED00000127A0000093D002800002038000020A0
:100EE0004004424210B50446FF48844208D1012123
:100EF000C014FFF7A6FF0021E014FFF7A2FFC4E033
:100F0000B4F1804F08D101210846FFF7A7FF002167
:100F10000120FFF7A3FFB8E0F448844208D1012183
:100F20000220FFF79BFF00210220FFF797FFACE0B4
:100F3000EF48844208D101210420FFF78FFF0021F0
:100F40000420FFF78BFFA0E0EA48844208D101218A
:100F50000820FFF783FF00210820FFF77FFF94E0C0
:100F6000E548844208D101211020FFF777FF0021D6
:100F70001020FFF773FF88E0E048844208D1012188
:100F80002020FFF76BFF00212020FFF767FF7CE0A8
:100F9000DB48844208D101214014FFF752FF0021B1
:100FA0006014FFF74EFF70E0D648844209D101215A
:100FB000C804FFF746FF00214FF40020FFF741FF70
:100FC00063E0D148844209D101210805FFF739FFC8
:100FD00000214FF48010FFF734FF56E0CB488442E5
:100FE00009D101214805FFF72CFF00214FF4001023
:100FF000FFF727FF49E0C648844208D1012140207D
:10100000FFF72CFF00214020FFF728FF3DE0C148FB
:10101000844208D101218020FFF720FF0021802099
:10102000FFF71CFF31E0BC48844208D10121801544
:10103000FFF714FF0021A015FFF710FF25E0B748C8
:10104000844209D101210804FFF7FBFE00214FF47F
:101050008030FFF7F6FE18E0B148844209D1012143
:101060004804FFF7EEFE00214FF40030FFF7E9FEE1
:101070000BE0AC48844208D101218804FFF7E1FE6F
:1010800000214FF48020FFF7DCFE10BD0022028813
:10109000954B98420ED09A4B98420BD0B0F1804FAE
:1010A00008D0924B984205D0914B984202D0914B78
:1010B000984204D14FF68F731A404B881A438E4BD7
:1010C000984207D08D4B984204D04FF6FF431A4008
:1010D000CB881A4302808B8883850B880385824BDB
:1010E00098420BD0864B984208D08C4B984205D042
:1010F0008B4B984202D08B4B984201D10B7A0386DE
:1011000001238382704770B5002400220023058CE0
:101110004FF6FE7635400584028C8388048B4FF6AB
:101120008F752C40B51E2C400D882C43751E2A400F
:101130000D892A434D882A436B4DA8420BD0704D30
:10114000A84208D0754DA84205D0754DA84202D0DE
:10115000744DA84213D14FF6F7752A404D892A43A2
:101160004FF6FB752A408D882A434FF6FF652B40CA
:101170004FF6FF552B408D892B43CD892B43838020
:101180000483CD888586028470BD70B5002400225A
:101190000023058C4FF6EF7635400584028C83885A
:1011A000048B48F6FF752C404FF6FF452C400D8808
:1011B0002D0644EA15444FF6DF752A400D892D05AA
:1011C00042EA15424D882D0542EA1542464DA84295
:1011D00002D04B4DA8421BD14FF67F752A404D8956
:1011E0002D0542EA15424FF6BF752A408D882D0520
:1011F00042EA15424FF6FF352B404FF2FF752B4068
:101200008D89AD0443EA1543CD89AD0443EA154306
:1012100083800483CD880587028470BD70B5002467
:1012200000220023058C4FF6FF6635400584028CB2
:101230008388848B4FF68F752C404FF6FC752C40BD
:101240000D882C434FF6FF552A400D892D0642EAA2
:1012500015424D882D0642EA1542234DA84202D080
:10126000274DA8421BD14FF2FF752A404D892D060C
:1012700042EA15424FF6FF352A408D882D0642EA94
:1012800015424EF6FF752B404DF6FF752B408D89AC
:101290002D0543EA1543CD892D0543EA1543838087
:1012A0008483CD888587028470BD70B500220023B9
:1012B0000024058C4EF6FF7635400584038C848827
:1012C000828B48F6FF752A404FF6FF452A400D886D
:1012D0002D0642EA15424DF6FF752B400D892D076C
:1012E00043EA15434D881FE0002C014000040040F4
:1012F00000080040000C00400010004000140040B6
:1013000000340140004C01400050014000540140B5
:1013100000180040001C0040002000400040014038
:1013200000440140004801402D0743EA1543F94DB0
:10133000A84202D0F84DA84206D14BF6FF752C40CA
:101340008D89AD0544EA154484808283CD88A0F858
:101350004050038470BD828B4FF2FF331A4082836A
:10136000828B0B0642EA134282837047F0B50C462B
:101370001546002200210026078C4EF6FF7C07EA66
:101380000C070784828B018C27073E0C40F6FF4731
:101390003A402F0642EA17421F0742EA1742DD4F42
:1013A000B8420ED0DC4FB8420BD0B0F1804F08D01D
:1013B000DA4FB84205D0DA4FB84202D0D94FB8421E
:1013C00006D14DF6FF77394046F48057394305E0A2
:1013D00047F6FF57394044F48057394382830184EC
:1013E000F0BD828B4FF6F3731A408283828B0A43DF
:1013F00082837047F0B50C46154600220021002676
:10140000078C4FF6FF6C07EA0C070784828B018C70
:1014100027063E0C4FF60C773A401F0545EA174762
:101420003A43BC4FB8420ED0BB4FB8420BD0B0F1DC
:10143000804F08D0B94FB84205D0B94FB84202D05A
:10144000B84FB84206D14FF6FF57394046F480777F
:10145000394305E04FF2FF57394044F48077394370
:1014600082830184F0BD028B4FF2FF331A40028366
:10147000028B0B0642EA134202837047F0B50C461A
:101480001546002200210026078C4FF6EF7C07EA64
:101490000C070784028B018C27053E0C40F6FF47A2
:1014A0003A401F0742EA17422F0642EA1742994F75
:1014B000B8420ED0984FB8420BD0B0F1804F08D050
:1014C000964FB84205D0964FB84202D0954FB842D9
:1014D00006D14FF6DF77394046F01007394305E073
:1014E0004FF65F77394044F0100739430283018497
:1014F000F0BD028B4FF6F3731A400283028B0A434E
:1015000002837047F0B50C46154600220021068C78
:101510004FF6FE773E400684028B018C4FF60C7628
:1015200032401E0545EA164632437A4EB0420ED08E
:10153000794EB0420BD0B0F1804F08D0774EB04218
:1015400005D0774EB04202D0764EB04206D14FF66B
:10155000FD76314044F00106314305E04FF6F57663
:10156000314044F00106314302830184F0BD70B57F
:1015700005460C46674885420ED0674885420BD029
:10158000B5F1804F08D06548854205D06448854252
:1015900002D06448854200D100E000BF208850B9E5
:1015A0002389A28861882846FFF7ACFFE188284696
:1015B000FFF79FFF25E0208804280AD12389A2880D
:1015C00061882846FFF75AFFE1882846FFF74BFF5E
:1015D00017E0208808280AD12389A2886188284634
:1015E000FFF708FFE1882846FFF7FBFE09E02389A3
:1015F000A28861882846FFF7B9FEE1882846FFF7F0
:10160000AAFE70BD2DE9F04105460C4600260127D3
:10161000608808B9022600E00026A088012801D1D0
:10162000022700E001272088A0B92389A2886188C9
:101630002846FFF767FFE1882846FFF75AFF23890E
:101640003A4631462846FFF719FFE1882846FFF75A
:101650000AFF13E02389A28861882846FFF70EFF5E
:10166000E1882846FFF7FFFE23893A46314628469F
:10167000FFF748FFE1882846FFF73BFFBDE8F08110
:101680000A884B881A438B881A43CB881A430B89E4
:101690001A434B891A438B891A43A0F84420704798
:1016A0004FF6FF71818000210180C180418001726D
:1016B00070470021018041808180C180018141818A
:1016C0008181C18170470021018041800121818099
:1016D0000021C1800181704700210180418081800B
:1016E000C180018141818181704721B1028842F02E
:1016F0000102028004E002884FF6FE731A40028065
:10170000704789B1B0F8442042F40042A0F8442068
:1017100010E00000002C01400034014000040040B3
:1017200000080040000C0040B0F84420C2F30E0254
:10173000A0F84420704710B51AB183890B43838108
:1017400004E08389CC43A4B22340838110BD81820D
:10175000704741EA0203A0F84830704710B51AB14B
:1017600083890B43838104E08389CC43A4B2234063
:10177000838110BD01894FF6F872114001817047D5
:101780000A46002101894FF68F73194011430181E8
:10179000704730B504460D4629462046FFF7F0FF56
:1017A000208940F00700208130BD2DE9F04104463A
:1017B0000D4616461F46602D06D13B460122314696
:1017C0002046FFF75BFE05E03B46012231462046FE
:1017D000FFF798FE29462046FFF7D2FF208940F008
:1017E00007002081BDE8F08130B50C460021018959
:1017F000C9B21D0642EA154525432943018130BD82
:101800002DE9F04105460E4617469846002443460A
:101810003A4631462846FFF7E7FF2C894FF6F87124
:101820000C4044F007044FF68F710C4044F07004F4
:101830002C81BDE8F081F0B504460D4616461F46E2
:101840003B46324629462046FFF7CEFF208940F42A
:1018500080402081F0BD0185828270470A460021C8
:1018600001884FF68F731940114301807047F0B51E
:101870000C4615461E460021002200230189028BDA
:10188000038C4FF6F877394021434FF6FC473A4036
:1018900040F201173A434FF6DD773B40370545EA02
:1018A00017473B43018102830384F0BD0A460021B0
:1018B000018B4FF68F7319401143018370470A461D
:1018C0000021018B48F6FF731940130641EA1341CA
:1018D000018370470A460021818B4FF68F731940B0
:1018E0001143818370470A460021818B48F6FF73BC
:1018F0001940130641EA13418183704721B10288E0
:1019000042F08002028004E002884FF67F731A40A2
:101910000280704721B1828842F00402828004E094
:1019200082884FF6FB731A408280704721B182880B
:1019300042F00802828004E082884FF6F7731A4072
:101940008280704721B1828842F00102828004E0E7
:1019500082884FF6FE731A40828070470A46002143
:10196000018B4FF6F77319401143018370470A4604
:101970000021018B4FF2FF731940130641EA134116
:10198000018370470A460021818B4FF6F773194097
:101990001143818370470A460021818B4FF2FF7308
:1019A0001940130641EA1341818370470A4600211A
:1019B000018B4FF6FB7319401143018370470A46B0
:1019C0000021018B4FF6FF331940130641EA134102
:1019D000018370470A460021818B4FF6FB73194043
:1019E0001143818370470A460021818B4FF6FF33F4
:1019F0001940130641EA1341818370470A460021CA
:101A0000018B4FF67F7319401143018370470A46DB
:101A10000021018BC1F30E01130641EA134101833A
:101A200070470A460021818B4FF67F73194011439E
:101A3000818370470A460021818BC1F30E01130692
:101A400041EA1341818370470A460021018C4FF619
:101A5000FD7319401143018470470A460021018C2F
:101A60004FF6F77319401143018470470A4600216D
:101A7000018C4FF6DF731940130541EA13410184CD
:101A800070470A460021018C4FF67F7319401305F9
:101A900041EA1341018470470A460021018C4FF648
:101AA000FF531940130641EA1341018470470A4667
:101AB0000021018C4FF2FF731940130641EA1341D4
:101AC000018470470A460021018C4DF6FF731940CE
:101AD000130741EA13410184704730B50023012404
:101AE0008C40A3B2048CDD43ADB22C400484048C42
:101AF00002FA01F5ADB22C43048430BD30B50023A9
:101B000004248C40A3B2048CDD43ADB22C40048489
:101B1000048C02FA01F5ADB22C43048430BD70B5DB
:101B20000346002000241846183001258D40ACB231
:101B30001D8CE643B6B235401D8409B1082909D190
:101B400000EB6100056825F0700505600568154328
:101B500005600CE00D1FADB200EB6500056825F4D3
:101B6000E04505600568160645EA1645056070BD46
:101B700021B1028842F00202028004E002884FF69E
:101B8000FD731A400280704721B1028842F00402BE
:101B9000028004E002884FF6FB731A40028070470F
:101BA00021B1828842F08002828004E082884FF670
:101BB0007F731A408280704702884FF6F7731A408D
:101BC000028002880A430280704782884FF68F7332
:101BD0001A40828082880A438280704702894FF6C9
:101BE000F8731A40028102890A4302817047028910
:101BF0004FF67F731A40028102890A4302817047BF
:101C0000818470478185704781867047018770475E
:101C100081877047A0F84010704702884FF6FF4355
:101C20001A40028002880A43028070470146888E6B
:101C300070470146088F70470146888F70470146FC
:101C4000B1F8400070470146888C70470146088D06
:101C5000704702460020138A0B4201D0012000E0A9
:101C600000207047CA430282704730B50246002008
:101C700000230024158A05EA0103958905EA010479
:101C800013B10CB1012000E0002030BDCA43028234
:101C90007047000010B50446FC48844209D1012178
:101CA0008803FFF7CEF800214FF48040FFF7C9F812
:101CB00032E0F748844209D101214804FFF7CEF809
:101CC00000214FF40030FFF7C9F825E0F1488442C5
:101CD00009D101218804FFF7C1F800214FF48020C9
:101CE000FFF7BCF818E0EC48844209D10121C80490
:101CF000FFF7B4F800214FF40020FFF7AFF80BE036
:101D0000E648844208D101210805FFF7A7F8002121
:101D10004FF48010FFF7A2F810BD2DE9F04786B010
:101D200005460E460024A24600BFA1460027B08902
:101D300000B100BF2F462C8A4CF6FF700440F0889B
:101D400004432C82AC894EF6F3100440B0883189EC
:101D50000843718908430443AC81AC8A4FF6FF40C5
:101D60000440B0890443AC8201A8FEF7E3FFC748F2
:101D7000874202D1DDF810A001E0DDF80CA0A889AF
:101D800010F4004F08D00AEBCA0000EB0A103168CB
:101D90004900B0FBF1F807E00AEBCA0000EB0A10BB
:101DA00031688900B0FBF1F86420B8FBF0F0040161
:101DB0002009642101FB1089A88910F4004F08D084
:101DC000322000EBC900B0FBF1F000F00700044343
:101DD00008E0322000EB09106421B0FBF1F000F0C4
:101DE0000F0004432C8106B0BDE8F0874FF4165174
:101DF000016000218180C18001810C21418100218D
:101E00008181704710B502460020108A4FF2FF030F
:101E100018400B884C8823438C882343CC88234369
:101E20001843108210BD0021018041808180C18053
:101E3000704721B1828942F40052828104E0828994
:101E40004DF6FF731A4082817047F0B503460024B7
:101E5000002600250020A1F510676A3F00D100BFD1
:101E60001846C1F3421401F01F06012707FA06F5D0
:101E7000012C01D10C3004E0022C01D1103000E023
:101E800014301AB107682F43076002E00768AF43B8
:101E90000760F0BD10B51AB1838A0B43838204E05A
:101EA000838ACC43A4B22340838210BD028A4FF6BA
:101EB000F0731A400282028A0A43028270478289C2
:101EC0004FF2FF731A40828182890A4382817047F0
:101ED00021B1828942F00202828104E082894FF6B8
:101EE000FD731A4082817047028A4FF6DF731A40F1
:101EF0000282028A0A430282704721B1028A42F4B6
:101F00008042028204E0028A4BF6FF731A4002828A
:101F10007047C1F308028280704701468888C0F389
:101F200008007047818941F0010181817047028B6F
:101F3000D2B20283028B42EA012202837047028BF3
:101F400002F47F420283028B0A430283704721B16D
:101F5000828A42F02002828204E0828A4FF6DF7396
:101F60001A408282704721B1828A42F01002828236
:101F700004E0828A4FF6EF731A408282704721B1E3
:101F8000828A42F00802828204E0828A4FF6F77366
:101F90001A408282704721B1828942F400428281D4
:101FA00003E08289C2F30E028281704721B1828AE6
:101FB00042F40062828204E0828A4FF2FF731A4088
:101FC00082827047828A4FF6FB731A408282828A2D
:101FD0000A438282704721B1828A42F002028282E1
:101FE00004E0828A4FF6FD731A40828270470246EF
:101FF0000020B1F5007F00D100BF13880B4201D053
:10200000012000E00020704701F40072B2F5007F6B
:1020100000D100BFCA430280704770B50246002459
:10202000002300250020A1F510666A3E00D100BF04
:10203000C1F3421501F01F03012606FA03F3012D37
:1020400002D19689334006E0022D02D1168A334030
:1020500001E0968A33400C12012606FA04F4168831
:10206000344013B10CB1012000E0002070BD10B568
:1020700000220023A1F510646A3C00D100BF0A12BF
:1020800001249440A3B2DC43048010BD0038014019
:102090000044004000480040004C00400050004018
:1020A0007FB505460C4601210420FEF7BDFEADF8C4
:1020B0000850ADF804400020ADF80A00ADF8060065
:1020C00001A94848FEF7E2FF012211464548FFF703
:1020D00032FB1E208DF8000002208DF80100032045
:1020E0008DF8020001208DF803006846FEF731FAF2
:1020F00001213C48FFF7F9FA7FBD7FB505460C4644
:1021000001210820FEF790FEADF80850ADF804401C
:102110000020ADF80A00ADF8060001A93248FEF72C
:10212000B5FF012211463048FFF705FB32208DF83C
:10213000000002208DF801008DF8020001208DF8CA
:1021400003006846FEF705FA01212748FFF7CDFA9C
:102150007FBD10B501212348FFF787FD28B101227B
:1021600040F227712148FFF770FE01211D48FFF75B
:102170008DFD10BD70B500240025FEF7A5F91C49A2
:102180001C4A127821F812001A480078401C19499C
:10219000087008460078142190FBF1F201FB120050
:1021A0001449087000BF06E0114830F814002844B4
:1021B00085B2601CC4B2142CF6DB284670BD10B585
:1021C00001210948FFF751FD30B1FFF7D3FF044665
:1021D000FEF781F9FEF77BF901210348FFF756FD71
:1021E00010BD000000080040000C0040004400400A
:1021F000A60000203D00002000B585B0012104208C
:10220000FEF705FE01214807FEF70EFE1020ADF88F
:10221000100000208DF8130003208DF8120004A98F
:102220004C48FEF741FB10214A48FEF7E8FB00202E
:102230000090019002900220039069460020FEF772
:102240000AFA01210020FEF729FA00210846FEF7CC
:102250009CFA05B000BD2DE9F0478046404600F0ED
:1022600055FF81463C49484600F06EFE81464FF0DE
:102270008B41484600F05EFF824600F039FE06467C
:102280004FF06632354B00F087FC044600F052FCFC
:102290008146484600F01AFF84B221460020FEF72E
:1022A00074FABDE8F08700B585B001210420FEF77F
:1022B000AEFD01214807FEF7B7FD2020ADF8100064
:1022C00000208DF8130003208DF8120004A9214886
:1022D000FEF7EAFA20211F48FEF791FB002000904C
:1022E000019002900220039069461020FEF7B3F996
:1022F00001211020FEF7D2F900210846FEF74CFA22
:1023000005B000BD2DE9F0478046404600F0FEFED6
:1023100081461149484600F017FE81464FF08B4137
:10232000484600F007FF824600F0E2FD06464FF007
:1023300066320A4B00F030FC044600F0FBFB81469D
:10234000484600F0C3FE84B221460020FEF724FA7E
:10235000BDE8F0870008014000007A4466660A4044
:1023600030B585B005460C4601210846FEF75CFDF8
:1023700001210420FEF74BFD0220ADF810000420DF
:102380008DF8130004A94E48FEF78EFA02214C483E
:10239000FEF737FBADF80850ADF804400020ADF86B
:1023A0000A00ADF8060001A94FF08040FEF76EFE6E
:1023B00004204449088000204880012088800020B3
:1023C000C88008814FF08040FFF7D1F81C208DF8BD
:1023D000000001208DF801008DF802008DF8030047
:1023E0006846FEF7B6F8012205218807FFF7A3F932
:1023F00001218807FFF779F905B030BD324A42F86C
:10240000210070470022002105E02F4850F82100EC
:102410000244481CC1B20A29F7DB0A20B2FBF0F0E3
:10242000704710B501218807FFF71FFC78B12748D6
:102430000088401C2549088008460088402802DDA5
:102440002348FEF716F84FF6FF7022490880042152
:102450000807FFF70AFC70B34FF08040FFF7E9FB75
:102460001C4908801C4800780A280BD1FFF7CAFFD6
:102470001A49086008460068FDF7FBFF002016496E
:1024800008700EE011490988124A128802EB0140D7
:1024900011490978FFF7B2FF0F480078401C0E4938
:1024A00008700020094908800A49088000214FF07F
:1024B0008040FFF7A5FB05218807FFF7E7FB10BD6C
:1024C00000080140F8000020D0000020400000205B
:1024D00000A24A04480000204300002044000020DD
:1024E00030B585B005460C4601210220FEF79CFC64
:1024F00001211020FEF78BFC01210846FEF787FC26
:1025000001213248FEF79FFA8020ADF81000042028
:102510008DF8130004A92E48FEF7C6F980212C4837
:10252000FEF76FFAADF80850ADF804400020ADF8A2
:102530000A00ADF8060001A92648FEF7A7FD042011
:102540002549088000204880012088800020C8801C
:1025500008812048FFF70BF81D208DF800000120AE
:102560008DF8010000208DF8020001208DF8030095
:102570006846FDF7EEFF012205211648FFF7DBF85C
:1025800001211448FFF7B1F805B030BD10B50421A2
:102590001048FFF76AFB98B11048007848B1002056
:1025A0000E49087000210B48FFF760FAFDF786FF1F
:1025B00006E001200949087002210648FFF756FA93
:1025C00005210448FFF762FB10BD0000000C1A0053
:1025D0000010014000040040020100204C000020D7
:1025E00008B501214020FEF712FC10208DF80300F1
:1025F00003208DF802000420ADF800006946094868
:10260000FEF752F904210748FEF7F9F90820ADF862
:10261000000069460348FEF747F908210148FEF724
:10262000EEF908BD0018014010B54FF4A060FDF7A9
:102630008BFF10BD10B56FF00400FDF7DEFF2A48D8
:1026400000682A49B0FBF1F0294908700846007873
:102650004FF47A7148432749088010BD0146244A47
:1026600012784A434FF0E0235A6100229A611A46D9
:10267000126942F001021A6100BF4FF0E0221069B6
:1026800010F0010F02D010F4803FF6D04FF0E0229E
:10269000126922F001024FF0E0231A6100229A61D0
:1026A00070470146134A12884A434FF0E0235A61AB
:1026B00000229A611A46126942F001021A6100BFB3
:1026C0004FF0E022106910F0010F02D010F4803FAB
:1026D000F6D04FF0E022126922F001024FF0E02321
:1026E0001A6100229A6170470000002000127A00EF
:1026F000500000205200002010B586B00446012191
:102700004804FEF791FB01212020FEF780FB012108
:102710000846FEF77CFB01210820FEF794F92020F3
:10272000ADF8140003208DF8160018208DF817005E
:1027300005A9D348FEF7B8F84020ADF814000420EE
:102740008DF8170005A9CE48FEF7AEF826208DF8C3
:10275000000003208DF801008DF8020001208DF8A3
:1027600003006846FDF7F5FE01944FF48050ADF884
:1027700008000020ADF80A004FF48060ADF80C00AE
:102780000020ADF810000C20ADF80E0001A9BD48E6
:10279000FFF7C3FA012240F22551BA48FFF755FB73
:1027A0000121B848FFF745FB06B010BD70B50446DF
:1027B0000D4616460A2E4ED2DFE806F0050A11191C
:1027C00021292E353D455021AE48FFF7A2FB43E0BD
:1027D000AD48220B815CAB48FFF79BFB3CE0AA486D
:1027E000C4F30322815CA748FFF793FB34E0A648BB
:1027F000C4F30312815CA348FFF78BFB2CE004F0C9
:102800000F00A14A115C9F48FFF783FB24E0512190
:102810009C48FFF77EFB1FE09B482A0B815C994890
:10282000FFF777FB18E09848C5F30322815C9548D1
:10283000FFF76FFB10E09448C5F30312815C9148E9
:10284000FFF767FB08E005F00F008F4A115C8D4829
:10285000FFF75FFB00E000BF00BF70BD70B504462E
:102860000D46092D4CD2DFE805F0050A131B232B7A
:10287000333B430050218348FFF74BFB00BF0F2041
:1028800000EA1470804A115C7E48FFF742FB38E092
:102890007D48C4F30362815C7A48FFF73AFB30E07D
:1028A0007948C4F30352815C7648FFF732FB28E095
:1028B0007548C4F30342815C7248FFF72AFB20E0AD
:1028C0007148C4F30332815C6E48FFF722FB18E0C5
:1028D0006D48C4F30322815C6A48FFF71AFB10E0DD
:1028E0006948C4F30312815C6648FFF712FB08E0F5
:1028F00004F00F00644A115C6248FFF70AFB00E035
:1029000000BF00BF70BD10B540F225515D48FFF714
:1029100084FB20B35B48FFF700FBC4B2142C08DC37
:10292000002C06DD611E594A32F81100FFF793FCB6
:1029300015E0202C09DD342C07DCA4F12101534AD9
:1029400032F81100FFF7DEFC09E01CB90020FFF7A8
:1029500082FC04E0202C02D10020FFF7D3FC40F2DF
:1029600027714848FFF759FB20B3FDF76BFD484935
:10297000097888420DDD4648027846480188464875
:102980000088FFF713FF42480078401C4049087058
:1029900010E0002240F227713A48FFF756FA002073
:1029A0003B490870FDF76BFD3B490880FDF796FD3C
:1029B0003849088010BD002038490860384908802F
:1029C000384908700EE038483649097830F8110067
:1029D0003249096808443149086032480078401C8F
:1029E000304908702F4800781028ECDB2F48007819
:1029F000401C2E4908700878C11700EB11710911AD
:102A0000A0EB0111294A117024480068C0F30F108F
:102A10002349088008460088704700201F49086045
:102A20001F4908801F4908700EE021481D49097898
:102A300030F8110019490968084418490860194814
:102A40000078401C17490870164800781028ECDB05
:102A500018480078401C174908700878C11700EB27
:102A600011710911A0EB0111124A11700B48006895
:102A7000C0F30F100A49088008460088704700001C
:102A80000014014000440040550000206A0000206E
:102A90005400002068000020660000209400002000
:102AA000980000209A0000200C01002092000020D5
:102AB0002C01002093000020704770477047754636
:102AC00000F028F8AE4605006946534620F007009E
:102AD000854618B020B5FDF725FDBDE820404FF034
:102AE00000064FF000074FF000084FF0000B21F0F8
:102AF0000701AC46ACE8C009ACE8C009ACE8C009C5
:102B0000ACE8C0098D4670470446AFF3008020460C
:102B1000FDF757FB004870474C0100200048704704
:102B20005001002001491820ABBEFEE7260002003C
:102B30007047000021F00042A2F16052B2F5801F00
:102B400001F0004328BFD2F17F6C0BD95FEA001C73
:102B500043EAC20242EB507018BF704728BF20F012
:102B600001007047B2F5801FBCBF184670474FEA9E
:102B7000410C1CF5001F02D2084600F0A9BB70B53D
:102B800000F062F900000089FFF7F6BF4FF0004047
:102B9000A0F58000704700002DE9C04130B4DFF897
:102BA000A0C23CEA111418BF3CEA131400F0EC80F8
:102BB00081EA03051CEA111444EAD57418BF1CEA23
:102BC000131500F0C780A4EB05044FF0004545EA5B
:102BD000C12145EAC32341EA505143EA525304F16B
:102BE0007F74994204F500344FEAC0204FEAC222B4
:102BF00008BF904200F09C804FEA13650FF2401628
:102C0000765D4FEA134506FB05F7C7F1807706FBB3
:102C100007F74FEAD737A7FB03687642C8F5803835
:102C2000A7FB06CE38BFA8F1010807FB08E64FF066
:102C3000000EA6FB028CE6FB03CEDCF1000CCEF10D
:102C4000004E38BFAEF1010EA6FB0C584FF0000746
:102C50004FF00005E6FB0E87A1FB08C6A0FB07CEE0
:102C600016EB0E0645F10005E1FB076515F1E04E98
:102C70007EBFA4F580345FEA46066D4116F18007F9
:102C800045F100054FEA17274FEA066647EA056750
:102C9000A6F1DE46B6F1805F4FEA15251FD938460A
:102CA00024F0010C05EBC471BCF1FE6F01EB0C11BB
:102CB00002D8F0BCBDE8008124425CBF01F5801E53
:102CC0009EEAC47F02D4F0BCBDE80081244238D41F
:102CD000F0BCA1F1C041BDE8004100F003B94FEAEA
:102CE000D22242EA43524FEAD323A7FB02864FEA9D
:102CF000D02040EA415007FB03661EEA0E0F4FEA60
:102D0000D12105FB026658BFA6EB0056B6EB005674
:102D10004FEA520E4EEAC37E18EB0E0E56EB530EE0
:102D2000BDD518EB02085E417F1C55F10005B6E7E2
:102D30004FF480154FF000074FF000064FF00008E9
:102D4000ADE7F0BC4FF0000001F1C04101F00041DF
:102D5000BDE8008111EA0C1F0CEA131500D00CE04D
:102D600013EA0C1F00F025804FF00000F0BC81EA50
:102D7000030101F00041BDE80081F0BCBDE8004165
:102D800081EA030100F0AEB8F0BCBDE8004170B5C7
:102D900000F05AF8097EFC3E00F007B881EA030112
:102DA0004FF0000001F00041704781EA030100F09C
:102DB00099B8F0BCBDE800414FF0000021497047D0
:102DC000FFFDFBF9F7F5F4F2F0EEEDEBE9E8E6E4F0
:102DD000E3E1E0DEDDDBDAD8D7D5D4D3D1D0CFCD77
:102DE000CCCBCAC8C7C6C5C4C2C1C0BFBEBDBCBBB0
:102DF000BAB9B8B7B6B5B4B3B2B1B0AFAEADACABAB
:102E0000AAA9A8A8A7A6A5A4A3A3A2A1A09F9F9E84
:102E10009D9C9C9B9A999998979796959594939336
:102E2000929191908F8F8E8E8D8C8C8B8B8A8989CD
:102E30008888878786858584848383828281818050
:102E40000000FF070000F87F0EF1020E2EF0030EC7
:102E50005EF8046B364205D4012A43EB030515F5F1
:102E6000001F12D8012841EB010C1CF5001F0CD8E3
:102E70000ED14FEAD17C15F5001F0CEB4C0C0CF178
:102E8000020C08BF4CEBD37C04E04FF0080C01E0CF
:102E90004FEAD37C0CEB4C0526FA05F606F0070644
:102EA000B6F1040C06D20EEB860CBDE870404CF077
:102EB000010C6047DFE80CF0090B02024FF0004103
:102EC0004FF00000A1F5002170BD19461046012801
:102ED00051EB010418BFD4F5001484BF002001F0A9
:102EE000004170BD0808A0F500114FEA310170479C
:102EF00043004FEAD30C4FEA3C0C43401FBF40074E
:102F00000CF1605113F0FE4F70471CF0006F03D1BD
:102F100000200CF0004170470CF0004343EA507071
:102F200010B540EACC0000F086F900BF0000009226
:102F30004FEA0001FFF7D6BF4FF000414FF000000D
:102F4000A1F50021704700004FF47F0C1CEAD0125D
:102F50001EBF1CEAD11392EA0C0F93EA0C0F00F08B
:102F6000858090EA010F48BF42F4807240F4000C63
:102F700041F400002CF07F4120F07F4000B58142F9
:102F8000A2EB03020FF2081CACEB504EC0F10000A4
:102F90009EF800E04FEA4E0E00FB0EFC38BF4900E1
:102FA0004FEA2C1C02F5FA020CFB0EF34FEACE1E80
:102FB0004FEA112C4FEAC1210EEB635E42EB224235
:102FC0000EFB0CFC4FEA1C5300FB03114FEA112CC3
:102FD0004FEA01310EFB0CFC4FEADC4C00FB0C11FC
:102FE000C14228BF09184CEB03335DF804EB10EB2A
:102FF000410143EBC250B2F57C0F38BF704729D571
:1030000012F0F00F1CBF00F1C04000F0004070470C
:10301000008182838485868788898B8C8D8E8F91B1
:103020009293959697999A9C9D9FA0A2A3A5A7A8D5
:10303000AAACAEB0B2B3B5B7B9BCBEC0C2C5C7C901
:10304000CCCED1D4D7D9DCDFE2E6E9ECF0F3F7FA65
:10305000FE0000004FEA400C0CF1807CBCF17E4F7A
:1030600028BF7047B0F1C04000F032B990EA010FBC
:103070000CEAD11348BF42F48072624538BF634501
:1030800007D213F47F0F16D080EA010000F0004051
:10309000704710B500F0CFF8097EFC3E00F005B88F
:1030A00080EA010000F00040704780EA010000F073
:1030B000004000F00DB912F47F0F04BF02487047C2
:1030C00080EA010000F004B90000C07FC10DD1F119
:1030D0009E0206DB4FEA002343F0004323FA02F08E
:1030E0007047004207D54FEA4001B1F1FE4F02D2CE
:1030F0004FF00000704710B500F09DF84992248011
:10310000002070476FEA200070470000B0FA80F39B
:1031100010FA03F2C3F19D030AD0D90501EB122086
:10312000530638BF704700F1010008BF20F00100CE
:10313000704700004FF47F0C1CEAD0121EBF1CEA3F
:10314000D11392EA0C0F93EA0C0F00F0478090EA3B
:10315000010F48BF42F480724FF0004C4CEA00204F
:103160004CEA012102EB0302A0FB0113A2F50002CD
:10317000002918BF43F001035B0028BF4FEA330367
:1031800042EB22425FEA132C4CEBC2502EBFBCEB49
:10319000436FB2F57C0F70474FEA036CBCF1004FF0
:1031A00008BF20F00100B2F57C0F38BF70470BD587
:1031B00082F0FF0212F5803FC8BF704700F1C040A7
:1031C000D8BF00F00040704700F5000C5FEA4C0CDF
:1031D00048BF7047B0F1C04000F07AB890EA010FE4
:1031E0000CEAD11348BF42F48072624538BF634590
:1031F00004D280EA010000F00040704710B500F0F2
:103200001AF800BF8900013E00F007B800F009B8C5
:103210005FEA410C5FEA1C6C08D080EA010000F014
:1032200057B85FEA400C5FEA1C6CF6D14FF00040E3
:10323000A0F5800070470EF1020E2EF0030E5EF82E
:10324000044B244204D44FEA4102B2F17F4F11D81B
:103250004FEA4003B3F17F4F0CD80ED14FEAD07C38
:10326000B2F17F4F0CEB4C0C0CF1020C08BF4CEB95
:10327000D17C04E04FF0080C01E04FEAD17C0CEB6C
:103280004C0324FA03F404F00704B4F1040C06D24E
:103290000EEB840CBDE810404CF0010C6047DFE8F9
:1032A0000CF0070802024FF00040A0F5800010BDAE
:1032B0000846420018BFD2F1807288BF00F000407B
:1032C00010BD10B5FFF72AFC4FF00001016010BDE2
:1032D000FF2141EAD050C00570470000FC320008D1
:1032E000000000209C0000006C01000898330008DA
:1032F0009C000020140700008801000800A24A0476
:103300000000000000000000010203040607080995
:1033100000000000000000000000000000000000AD
:103320000000000000000000010203040102030489
:10333000060708090204060800000000000000005B
:10334000000000000000000000000000000000007D
:103350000030313233343536373839414243444511
:10336000460000000000A5004A01EF019402390365
:10337000DE0383042805CD0572061707BC07610824
:103380000609AB09500AF50A9A0B3F0CE40C000041
:08339000000000000000000035
:0400000508000131BD
:00000001FF
