:020000040800F2
:10000000D80600205D050008710200087302000890
:10001000770200087B0200087F0200080000000051
:100020000000000000000000000000008302000843
:10003000850200080000000087020008890200080D
:1000400077050008770500087705000877050008A0
:100050007705000877050008770500087705000890
:100060007705000877050008770500087705000880
:100070007705000877050008770500087705000870
:100080007705000877050008770500087705000860
:100090007705000877050008770500087705000850
:1000A0007705000877050008770500087705000840
:1000B000612500088126000809230008770500084B
:1000C0007705000877050008770500087705000820
:1000D0007705000877050008252A0008770500083D
:1000E0007705000877050008770500080000000084
:1000F0000000000000000000000000000000000000
:1001000000000000000000002B2300087705000815
:1001100077050008770500087705000877050008CF
:1001200077050008770500087705000877050008BF
:1001300077050008770500087705000877050008AF
:10014000770500087705000877050008770500089F
:1001500000F002F800F03AF80AA090E8000C82449F
:100160008344AAF10107DA4501D100F02FF8AFF27C
:10017000090EBAE80F0013F0010F18BFFB1A43F085
:1001800001031847BC310000DC310000103A24BFE5
:1001900078C878C1FAD8520724BF30C830C144BFEC
:1001A00004680C607047000000230024002500262E
:1001B000103A28BF78C1FBD8520728BF30C148BFCA
:1001C0000B6070471FB51FBD10B510BD02F0B5FC28
:1001D0001146FFF7F7FF00F009F802F0D3FC03B473
:1001E000FFF7F2FF03BC02F0D7FC000002F0A8FA10
:1001F00002F0ACFA02F080FA482141F2873002F0B6
:1002000029F84FF4E15141F2873002F050F8002113
:100210004FF6FF7002F054F900214FF6FF7002F024
:10022000D9F94FF4E13002F0F9FA02F095F802F052
:10023000EAF817E000200C4908604FF001000B4974
:10024000C1F88C014FF4FA7002F0BCFA01200649A3
:1002500008604FF000000549C1F88C014FF4FA70B6
:1002600002F0B0FAE6E700008801234200002342D2
:10027000704700BFFEE700BFFEE700BFFEE700BF1C
:10028000FEE770477047704770470000002100206C
:100290008D4A126842F480328B4B1A6000BF8A4A42
:1002A000126802F40030491C10B9B1F5A06FF6D104
:1002B000854A126812F4003F01D0012000E00020BE
:1002C00001285AD1814A126842F010027F4B1A600D
:1002D0001A46126822F003021A601A46126842F0A7
:1002E00002021A60784A5268774B5A601A4652687E
:1002F0005A601A46526842F480625A601A46D26ABC
:10030000734B1A40704BDA621A46D26A714B1A4329
:100310006D4BDA621A46126842F080621A6000BFC2
:10032000694A126812F0006FFAD0674A526822F4E4
:100330007C12654B5A601A46526842F4E8125A60C1
:100340001A46126842F080721A6000BF5E4A126854
:1003500012F0007FFAD05C4A526822F003025A4B36
:100360005A601A46526842F002025A6000BF564A6A
:10037000526802F00C02082AF9D1704710B5FFF755
:1003800085FF10BD10B55048006840F001004E498F
:10039000086008464068504908404B494860084694
:1003A00000684E490840484908600846006820F443
:1003B000802008600846406820F4FE004860084637
:1003C000006820F0A05008604FF47F008860002093
:1003D000C862FFF7D3FF4FF000604149086010BDCD
:1003E000F0B5002100200023002400220025002673
:1003F000354F7F6807F00C0121B1042908D0082986
:100400004BD10BE0374FDFF8E0C0CCF800704AE08A
:10041000344FDFF8D4C0CCF8007044E02A4F7F6836
:1004200007F47010284F7F6807F48033800C0D2884
:1004300001D0801C00E0062033B92C4F4743DFF881
:10044000A8C0CCF8007027E01F4FFF6A07F4803483
:100450001D4FFF6A07F00F077A1C44B9214FB7FB05
:10046000F2F74743DFF880C0CCF8007014E0164F75
:10047000FF6AC7F303177D1C134FFF6AC7F30327F7
:10048000BE1C184FB7FBF5F77743B7FBF2F74743AE
:10049000DFF854C0CCF8007005E0124FDFF848C018
:1004A000CCF8007000BF00BF074F7F68C7F3031789
:1004B000DFF83CC01CF807100B4F3F68CF40DFF857
:1004C00028C0CCF80070F0BD0010024000200240AF
:1004D00000F0FEFF440601000000FFF0FFFFF6FE03
:1004E00008ED00E000127A000000002000093D0045
:1004F000040000200A207047052070471249087048
:1005000070471148007870470A2901DA0F4A5054A1
:10051000704701460A2902DA0C48405C70475520B2
:10052000FCE70B49B1FBF0F10A4A1180704709481A
:10053000008870470649B1FBF0F1074A1180704707
:100540000548008870470000140000205800002073
:1005500000A24A0416000020180000200948804725
:1005600009480047FEE7FEE7FEE7FEE7FEE7FEE795
:10057000FEE7FEE7FEE7FEE704480549054A064BAD
:10058000704700008503000851010008D8000020D2
:10059000D8060020D8020020D802002031490143AB
:1005A000314A1160704770B5002100230F22C478D2
:1005B0000CB32D4C246804F4E064C4F5E064210A13
:1005C000C1F10403CA40447804FA03F1847814406A
:1005D00021430901254C0678A155047804F01F0534
:1005E0000124AC4005786D114FF0E02606EB85053F
:1005F000C5F8004109E0047804F01F050124AC406F
:100600001B4D0678761145F8264070BD194A0A4000
:100610000243154B1B1F1A60704739B1124A121D55
:1006200012680243104B1B1D1A6006E00E4A121D91
:10063000126882430C4B1B1D1A607047042808D1B6
:100640004FF0E021096941F004014FF0E02211610F
:1006500007E04FF0E021096921F004014FF0E022AA
:10066000116170470000FA050CED00E000E400E0C5
:1006700080E100E080FFFF1F10B50121480700F076
:10068000A6FC00214FF0005000F0A1FC10BD30B5D9
:1006900000220023514C226840F6FE748440A2439D
:1006A000D1E900452C438D682C43CD6844EA05030D
:1006B00003FA00F42243494C226030BD002101605E
:1006C00041608160C160704739B1444A12680123BA
:1006D00083401A43414B1A6006E0404A12680123E6
:1006E00083409A433D4B1A60704741B13B4A1268C0
:1006F0004FF4805383401A43384B1A6007E0374A5F
:1007000012684FF4805383409A43344B1A60704709
:1007100010B551B1314A121D126804090123A340DA
:100720001A432E4B1B1D1A6009E02C4A121D126839
:1007300004090123A3409A43284B1B1D1A6010BDD6
:1007400040B12649091D096841F00301234A121DE1
:10075000116007E02149091D096821F003011F4AC2
:10076000121D1160704710B53AB11C4B1B6801FA9D
:1007700000F42343194C236006E0184B1B6801FA70
:1007800000F4A343154C236010BD0022134A00F16E
:1007900008031A44116070470022104A00F1140344
:1007A0001A441160704730B500240023082802D194
:1007B00042EA012401E042EA0144084B00F120052D
:1007C0002B441C6030BD01460022044A2C2000EB63
:1007D00091000244106880B270470000007400402D
:1007E00010B50446CA48844208D10121042000F013
:1007F000E1FB0021042000F0DDFB46E0C548844217
:1008000008D10121082000F0D5FB0021082000F0CC
:10081000D1FB3AE0C048844208D10121102000F009
:10082000C9FB0021102000F0C5FB2EE0BB4884422C
:1008300008D10121202000F0BDFB0021202000F084
:10084000B9FB22E0B648844208D10121402000F0E3
:10085000B1FB0021402000F0ADFB16E0B14884421E
:1008600008D10121802000F0A5FB0021802000F0AC
:10087000A1FB0AE0AC48844207D10121801500F0B9
:1008800099FB0021A01500F095FB10BD10B50121CA
:10089000084600F08FFB0021012000F08BFB10BD0B
:1008A0002DE9F04102460025002600200023002407
:1008B000002791F803C00CF00F0591F803C01CF05D
:1008C000100F03D091F802C04CEA050591F800C062
:1008D000BCF1000F31D0146800202BE04FF0010C68
:1008E0000CFA00F3B1F800C00CEA03069E4220D1D6
:1008F00083004FF00F0C0CFA03F7BC4305FA03FC1E
:100900004CEA040491F803C0BCF1280F06D14FF063
:10091000010C0CFA00FCC2F814C00AE091F803C004
:10092000BCF1480F05D14FF0010C0CFA00FCC2F8E5
:1009300010C0401C0828D1D31460B1F800C0BCF12D
:10094000FF0F34DD546800202EE000F1080C4FF05A
:10095000010808FA0CF3B1F800C00CEA03069E4245
:1009600021D183004FF00F0C0CFA03F7BC4305FABA
:1009700003FC4CEA040491F803C0BCF1280F05D134
:1009800000F1080C08FA0CF8C2F8148091F803C0C2
:10099000BCF1480F07D100F1080C4FF0010808FA2C
:1009A0000CF8C2F81080401C0828CED35460BDE873
:1009B000F0814FF6FF710180022181700421C17026
:1009C00070470246002093680B4201D0012000E0EE
:1009D000002070470146886880B2704702460020B8
:1009E000D3680B4201D0012000E00020704701468F
:1009F000C86880B2704701617047416170470AB1B1
:100A0000016100E041617047C16070474FF480327E
:100A10000A4382618161826182698269704702460C
:100A20000020424B18684FF68073184040EA0210CD
:100A300008433E4B186070473D49C8617047F0B5A8
:100A40000A46002300240021002500F00046B6F1EC
:100A5000004F02D1354EF16901E0344E7168C0F3A8
:100A6000034583B200F44016B6F5401F08D121F0CB
:100A700070612E4E766826F070662C4F7E6012E014
:100A800000F48016B6F5801F06D1032606FA05F499
:100A9000A14341F0706106E0460D360103FA06F607
:100AA000B14341F0706122B1460D360103FA06F6FA
:100AB000314300F00046B6F1004F02D11B4EF16108
:100AC00001E01A4E7160F0BD30B500228B071C0F9B
:100AD0000F2303FA04F2154B08338C1053F824301B
:100AE0009343124C08348D1044F8253023468C1063
:100AF00053F824308C07240F00FA04F423430B4CE2
:100B000008348D1044F8253030BD0A49086070471C
:100B100000080140000C0140001001400014014099
:100B200000180140001C014000200140000001406D
:100B300000002042DC002042F748006840F001003D
:100B4000F549086008464068F4490840F2494860A1
:100B500008460068F2490840EF4908600846006806
:100B600020F4802008600846406820F4FE004860B9
:100B70000846006820F0A05008604FF47F008860AD
:100B80000020C8627047E449096821F48031E24AD4
:100B900011601146096821F480211160B0F5803F91
:100BA00003D0B0F5802F0ED106E0DB49096841F48F
:100BB0008031D94A116007E0D749096841F4A02182
:100BC000D54A116000E000BF00BF704710B5014674
:100BD0000022002300204A11012A02D1CE4C2368B2
:100BE00006E0022A02D1CC4C236A01E0CA4C636AB7
:100BF00001F01F02012494401C4201D0012000E0BA
:100C0000002010BD70B500240025002600BF312053
:100C1000FFF7DCFF0646641CB4F5A06F01D0002E80
:100C2000F5D03120FFF7D2FF08B1012500E0002503
:100C3000284670BD01460020B74A106820F0F80031
:100C400040EAC10010607047B6490860704702462C
:100C50000020B14B586820F4741042EA0103184395
:100C6000AD4B58607047AF49086670470246002098
:100C7000A94BD86AAC4B184042EA01031843A64B73
:100C8000D862704701460020A34AD06A20F0F000E5
:100C90000843D0627047014600209F4AD06A20F482
:100CA00070600843D06270479E498866704701466D
:100CB0000020994AD06A20F470400843D0627047FF
:100CC00098490867704701460020934A506820F011
:100CD00003000843506070478F48406800F00C00E4
:100CE0007047014600208C4A506820F0F00008430D
:100CF0005060704701460020874A506820F4E06049
:100D000008435060704701460020834A506820F431
:100D1000605040EAC1005060704729B17E4A527A63
:100D200002437D4B5A7204E07B4A527A82437A4BEB
:100D30005A7270477D490860704701460020764A24
:100D4000506820F44040084350607047784908607C
:100D500070477749091D086070470021754A117076
:100D60006D4A82F82010012802D0042808D103E03F
:100D70000121704A117004E005216E4A117000E0F3
:100D800000BF00BF70476C49086070476249096A3C
:100D90000143614A116270476749443908607047EE
:100DA0002DE9F04100210022002500230026002427
:100DB00000278C46DFF86081D8F8048008F00C0129
:100DC00021B1042907D0082959D109E0DFF86C8145
:100DD000C0F8008058E0DFF86481C0F8008053E07C
:100DE000DFF83481D8F8048008F47012DFF8288125
:100DF000D8F8048008F48035920C0D2A01D0921C9A
:100E000000E0062235B9DFF8388102FB08F8C0F8A7
:100E1000008033E0DFF80081D8F82C8008F48036B9
:100E2000DFF8F480D8F82C8008F00F0808F10104EE
:100E300046B9DFF80881B8FBF4F808FB02F8C0F8FF
:100E400000801BE0DFF8D080D8F82C80C8F30318AE
:100E500008F10107DFF8C080D8F82C80C8F3032818
:100E600008F1020CDFF8D480B8FBF7F808FB0CF8A7
:100E7000B8FBF4F808FB02F8C0F8008004E0DFF8E3
:100E8000BC80C0F8008000BF00BFDFF88C80D8F8BD
:100E9000048008F0F0010909DFF8A88018F8013093
:100EA000D0F8008028FA03F8C0F80480DFF86880E2
:100EB000D8F8048008F4E061090ADFF8888018F89F
:100EC0000130D0F8048028FA03F8C0F80880DFF871
:100ED0004880D8F8048008F46051C90ADFF86480BB
:100EE00018F80130D0F8048028FA03F8C0F80C8014
:100EF000DFF82480D8F8048008F44041890BDFF83B
:100F0000488018F80130D0F80C80B8FBF3F8C0F82E
:100F10001080BDE8F0810000001002400000FFF0EA
:100F2000FFFFF6FE00004242F0FFFEFFD800424203
:100F3000C4054242201002408004424200127A005E
:100F400000093D00200000203000002029B1354A72
:100F500052690243334B5A6104E0324A5269824378
:100F6000304B5A61704729B12E4A926902432D4B8A
:100F70009A6104E02B4A926982432A4B9A61704736
:100F800029B1284AD2690243264BDA6104E0254A96
:100F9000D2698243234BDA61704729B1214A926AB0
:100FA0000243204B9A6204E01E4A926A82431D4B20
:100FB0009A62704729B11B4AD2680243194BDA6022
:100FC00004E0184AD2688243164BDA60704729B1B0
:100FD000144A12690243134B1A6104E0114A126960
:100FE0008243104B1A6170470F49086070470F49E0
:100FF000C86470470B49C87170470A48406A40F09E
:10100000807008494862704701460020054A92688E
:101010000A4201D0012000E0002070470149887297
:10102000704700000010024040044242000042426B
:1010300010B50446FE48844208D10121C014FFF7D0
:10104000B9FF0021E014FFF7B5FFC4E0B4F1804F11
:1010500008D101210846FFF7BAFF00210120FFF760
:10106000B6FFB8E0F348844208D101210220FFF71F
:10107000AEFF00210220FFF7AAFFACE0EE48844259
:1010800008D101210420FFF7A2FF00210420FFF76F
:101090009EFFA0E0E948844208D101210820FFF723
:1010A00096FF00210820FFF792FF94E0E448844275
:1010B00008D101211020FFF78AFF00211020FFF73F
:1010C00086FF88E0DF48844208D101212020FFF715
:1010D0007EFF00212020FFF77AFF7CE0DA4884427F
:1010E00008D101214014FFF765FF00216014FFF7CC
:1010F00061FF70E0D548844209D10121C804FFF79F
:1011000059FF00214FF40020FFF754FF63E0D0485F
:10111000844209D101210805FFF74CFF00214FF45B
:101120008010FFF747FF56E0CA48844209D10121E9
:101130004805FFF73FFF00214FF40010FFF73AFF8B
:1011400049E0C548844208D101214020FFF73FFF14
:1011500000214020FFF73BFF3DE0C048844208D11A
:1011600001218020FFF733FF00218020FFF72FFFB0
:1011700031E0BB48844208D101218015FFF727FFE9
:101180000021A015FFF723FF25E0B648844209D1CE
:1011900001210804FFF70EFF00214FF48030FFF714
:1011A00009FF18E0B048844209D101214804FFF743
:1011B00001FF00214FF40030FFF7FCFE0BE0AB48CD
:1011C000844208D101218804FFF7F4FE00214FF486
:1011D0008020FFF7EFFE10BD00220288944B98425A
:1011E0000ED0994B98420BD0B0F1804F08D0914B64
:1011F000984205D0904B984202D0904B984204D12F
:101200004FF68F731A404B881A438D4B984207D084
:101210008C4B984204D04FF6FF431A40CB881A43B8
:1012200002808B8883850B880385814B98420BD085
:10123000854B984208D08B4B984205D08A4B9842F8
:1012400002D08A4B984201D10B7A03860123838214
:10125000704770B5002400220023058C4FF6FE76FF
:1012600035400584028C8388048B4FF68F752C40A3
:10127000B51E2C400D882C43751E2A400D892A432B
:101280004D882A436A4DA8420BD06F4DA84208D022
:10129000744DA84205D0744DA84202D0734DA842A7
:1012A00013D14FF6F7752A404D892A434FF6FB7547
:1012B0002A408D882A434FF6FF652B404FF6FF5595
:1012C0002B408D892B43CD892B4383800483CD888C
:1012D0008586028470BD70B5002400220023058C31
:1012E0004FF6EF7635400584028C8388048B48F6F0
:1012F000FF752C404FF6FF452C400D884FF6FF76CA
:1013000006EA05252C434FF6DF752A400D8906EACB
:1013100005152A434D8806EA05152A43444DA8427F
:1013200002D0494DA8421DD14FF67F752A404D8904
:101330004FF6FF7606EA05152A434FF6BF752A4099
:101340008D8806EA05152A434FF6FF352B404FF2EC
:10135000FF752B408D8906EA85052B43CD8906EA6A
:1013600085052B4383800483CD880587028470BD67
:1013700070B5002400220023058C4FF6FF6635402F
:101380000584028C8388848B4FF68F752C404FF632
:10139000FC752C400D882C434FF6FF552A400D89D3
:1013A0004FF6FF7606EA05252A434D8806EA05250D
:1013B0002A431F4DA84202D0234DA8421DD14FF20F
:1013C000FF752A404D894FF6FF7606EA05252A4328
:1013D0004FF6FF352A408D8806EA05252A434EF64A
:1013E000FF752B404DF6FF752B408D8906EA0515DC
:1013F0002B43CD8906EA05152B4383808483CD8852
:101400008587028470BD70B5002200230024058CFE
:101410004EF6FF7635400584038C8488828B48F62F
:10142000FF752A404FF6FF452A400D8820E0000056
:10143000002C01400004004000080040000C004067
:10144000001000400014004000340140004C0140F6
:10145000005001400054014000180040001C0040B2
:10146000002000400040014000440140004801408D
:101470004FF6FF7606EA05252A434DF6FF752B4009
:101480000D8906EA05352B434D8806EA05352B43C1
:10149000FA4DA84202D0FA4DA84208D14BF6FF758A
:1014A0002C408D894FF6FF7606EA85152C43848003
:1014B0008283CD88A0F84050038470BD828B4FF2A8
:1014C000FF331A408283828B4FF6FF7303EA0123B6
:1014D0001A4382837047F0B50C461546002200215E
:1014E0000026078C4EF6FF7C07EA0C070784828BE8
:1014F000018C4FF6FF7707EA043640F6FF473A4083
:101500004FF6FF7707EA05273A434FF6FF7707EADA
:1015100003373A43D94FB8420ED0D94FB8420BD017
:10152000B0F1804F08D0D74FB84205D0D64FB8425F
:1015300002D0D64FB84206D14DF6FF77394046F477
:101540008057394305E047F6FF57394044F4805748
:10155000394382830184F0BD828B4FF6F3731A40C6
:101560008283828B0A4382837047F0B50C4615460E
:10157000002200210026078C4FF6FF6C07EA0C07BB
:101580000784828B018C4FF6FF7707EA04264FF61B
:101590000C773A404FF6FF7707EA03172F433A4399
:1015A000B64FB8420ED0B64FB8420BD0B0F1804F14
:1015B00008D0B44FB84205D0B34FB84202D0B34FB1
:1015C000B84206D14FF6FF57394046F48077394389
:1015D00005E04FF2FF57394044F480773943828366
:1015E0000184F0BD028B4FF2FF331A400283028B5D
:1015F0004FF6FF7303EA01231A4302837047F0B5E5
:101600000C461546002200210026078C4FF6EF7C81
:1016100007EA0C070784028B018C4FF6FF7707EA75
:10162000041640F6FF473A404FF6FF7707EA0337C4
:101630003A434FF6FF7707EA05273A438F4FB84200
:101640000ED08F4FB8420BD0B0F1804F08D08D4FE5
:10165000B84205D08C4FB84202D08C4FB84206D168
:101660004FF6DF77394046F01007394305E04FF673
:101670005F77394044F01007394302830184F0BD9D
:10168000028B4FF6F3731A400283028B0A430283E4
:101690007047F0B50C46154600220021068C4FF627
:1016A000FE773E400684028B018C4FF60C7632406A
:1016B0007E1C06EA03162E433243704EB0420ED013
:1016C0006F4EB0420BD0B0F1804F08D06D4EB0429B
:1016D00005D06D4EB04202D06C4EB04206D14FF6EE
:1016E000FD76314044F00106314305E04FF6F576D2
:1016F000314044F00106314302830184F0BD70B5EE
:1017000005460C465D4885420ED05D4885420BD0AB
:10171000B5F1804F08D05B48854205D05A488542D4
:1017200002D05A48854200D100E000BF208850B95D
:101730002389A28861882846FFF7ABFFE188284605
:10174000FFF79EFF25E0208804280AD12389A2887C
:1017500061882846FFF753FFE1882846FFF742FFDC
:1017600017E0208808280AD12389A28861882846A2
:10177000FFF7FBFEE1882846FFF7EEFE09E023892C
:10178000A28861882846FFF7A6FEE1882846FFF771
:1017900095FE70BD2DE9F04105460C460026012757
:1017A000608808B9022600E00026A088012801D13F
:1017B000022700E001272088A0B92389A288618838
:1017C0002846FFF766FFE1882846FFF759FF23897F
:1017D0003A4631462846FFF712FFE1882846FFF7D0
:1017E00001FF13E02389A28861882846FFF707FFDD
:1017F000E1882846FFF7F6FE23893A463146284617
:10180000FFF747FFE1882846FFF73AFFBDE8F08180
:101810000A884B881A438B881A43CB881A430B8952
:101820001A434B891A438B891A43A0F84420704706
:101830004FF6FF71818000210180C18041800172DB
:1018400070470021018041808180C18001814181F8
:101850008181C18170470021018041800121818007
:101860000021C18001817047002101804180818079
:10187000C18001814181818170470000002C0140BD
:10188000003401400004004000080040000C00400B
:1018900021B1028842F00102028004E002884FF682
:1018A000FE731A400280704731B1B0F8442042F410
:1018B0000042A0F8442005E0B0F84420C2F30E0234
:1018C000A0F8442070471AB183890B43838102E05A
:1018D00083898B43838170478182704741EA020389
:1018E000A0F8483070471AB183890B43838102E026
:1018F00083898B438381704701894FF6F8721140C9
:10190000018170470A46002101894FF68F73194003
:1019100011430181704730B504460D4629462046E3
:10192000FFF7F0FF208940F00700208130BD2DE94E
:10193000F04104460D4616461F46602D06D13B4633
:10194000012231462046FFF75AFE05E03B460122C0
:1019500031462046FFF79DFE29462046FFF7D2FF7D
:10196000208940F007002081BDE8F08130B50C46A9
:1019700000210189C9B24FF6FF7505EA0325154319
:1019800025432943018130BD2DE9F04105460E462E
:1019900017469846002443463A4631462846FFF704
:1019A000E5FF2C894FF6F870044044F007044FF629
:1019B0008F70044044F070042C81BDE8F081F0B5D4
:1019C00004460D4616461F463B46324629462046EB
:1019D000FFF7CCFF208940F480402081F0BD0185D5
:1019E000828270470A46002101884FF68F731940A2
:1019F000114301807047F0B50C4615461E46002184
:101A0000002200230189028B038C4FF6F8773940BE
:101A100021434FF6FC473A4040F201173A434FF654
:101A2000DD773B404FF6FF7707EA06172F433B432E
:101A3000018102830384F0BD0A460021018B4FF629
:101A40008F7319401143018370470A460021018BAF
:101A500048F6FF7319404FF6FF7303EA0223194358
:101A6000018370470A460021818B4FF68F7319401E
:101A70001143818370470A460021818B48F6FF732A
:101A800019404FF6FF7303EA02231943818370471D
:101A900021B1028842F08002028004E002884FF601
:101AA0007F731A400280704721B1828842F004029D
:101AB000828004E082884FF6FB731A408280704770
:101AC00021B1828842F00802828004E082884FF6C9
:101AD000F7731A408280704721B1828842F0010278
:101AE000828004E082884FF6FE731A40828070473D
:101AF0000A460021018B4FF6F77319401143018309
:101B000070470A460021018B4FF2FF7319404FF6D0
:101B1000FF7303EA02231943018370470A46002139
:101B2000818B4FF6F77319401143818370470A4642
:101B30000021818B4FF2FF7319404FF6FF7303EAC8
:101B400002231943818370470A460021018B4FF617
:101B5000FB7319401143018370470A460021018B32
:101B60004FF6FF3319404FF6FF7303EA0223194380
:101B7000018370470A460021818B4FF6FB731940A1
:101B80001143818370470A460021818B4FF6FF3352
:101B900019404FF6FF7303EA02231943818370470C
:101BA0000A460021018B4FF67F73194011430183D0
:101BB00070470A460021018BC1F30E014FF6FF73F7
:101BC00003EA02231943018370470A460021818BEF
:101BD0004FF67F7319401143818370470A460021F5
:101BE000818BC1F30E014FF6FF7303EA0223194301
:101BF000818370470A460021018C4FF6FD7319401E
:101C00001143018470470A460021018C4FF6F77397
:101C100019401143018470470A460021018C4FF698
:101C2000DF7319404FF6FF7303EA0213194301846F
:101C300070470A460021018C4FF67F7319404FF61A
:101C4000FF7303EA02131943018470470A46002117
:101C5000018C4FF6FF5319404FF6FF7303EA02233E
:101C60001943018470470A460021018C4FF2FF732B
:101C700019404FF6FF7303EA0223194301847047AA
:101C80000A460021018C4DF6FF7319404FF6FF7391
:101C900003EA023319430184704730B5002301245D
:101CA0008C40A3B2048C9C430484048C02FA01F59A
:101CB000ADB22C43048430BD30B5002304248C40E5
:101CC000A3B2048C9C430484048C02FA01F5ADB2E7
:101CD0002C43048430BD70B5034600200024184610
:101CE000183001258D40ACB21D8CA5431D8409B16F
:101CF000082909D100EB6100056825F07005056031
:101D00000568154305600EE00D1FC5F34E05284418
:101D1000056825F4E045056005684FF6FF7606EA9C
:101D200002263543056070BD21B1028842F00202EF
:101D3000028004E002884FF6FD731A40028070476B
:101D400021B1028842F00402028004E002884FF6CA
:101D5000FB731A400280704721B1828842F08002F2
:101D6000828004E082884FF67F731A408280704739
:101D700002884FF6F7731A40028002880A430280F5
:101D8000704782884FF68F731A40828082880A4398
:101D90008280704702894FF6F8731A4002810289E7
:101DA0000A430281704702894FF67F731A4002810D
:101DB00002890A4302817047818470478185704798
:101DC000818670470187704781877047A0F840106F
:101DD000704702884FF6FF431A40028002880A4388
:101DE000028070470146888E70470146088F704711
:101DF0000146888F70470146B1F8400070470146A0
:101E0000888C70470146088D704702460020138A6F
:101E10000B4201D0012000E000207047CA4302823B
:101E2000704730B50246002000230024158A05EAD9
:101E30000103958905EA010413B10CB1012000E00A
:101E4000002030BDCA4302827047000010B504462E
:101E5000FB48844209D101218803FFF7ABF8002138
:101E60004FF48040FFF7A6F832E0F648844209D1EB
:101E700001214804FFF7ABF800214FF40030FFF7D1
:101E8000A6F825E0F048844209D101218804FFF733
:101E90009EF800214FF48020FFF799F818E0EB48F6
:101EA000844209D10121C804FFF791F800214FF4C1
:101EB0000020FFF78CF80BE0E548844208D10121AF
:101EC0000805FFF784F800214FF48010FFF77FF832
:101ED00010BD2DE9F04786B005460E460024A24607
:101EE00000BFA1460027B08900B100BF2F462C8A51
:101EF0004CF6FF700440F08804432C82AC894EF607
:101F0000F3100440B08831890843718908430443C1
:101F1000AC81AC8A4FF6FF400440B0890443AC82E8
:101F200001A8FEF73DFFC648874202D1DDF810A0A8
:101F300001E0DDF80CA0A88910F4004F08D00AEBEE
:101F4000CA0000EB0A1031684900B0FBF1F807E065
:101F50000AEBCA0000EB0A1031688900B0FBF1F807
:101F60006420B8FBF0F004012009642101FB108912
:101F7000A88910F4004F08D0322000EBC900B0FB54
:101F8000F1F000F00700044308E0322000EB0910F4
:101F90006421B0FBF1F000F00F0004432C8106B087
:101FA000BDE8F0874FF41651016000218180C180A7
:101FB00001810C21418100218181704710B50246C9
:101FC0000020108A4FF2FF0318400B884C882343EF
:101FD0008C882343CC8823431843108210BD0021F2
:101FE000018041808180C180704721B1828942F4A3
:101FF0000052828104E082894DF6FF731A4082818B
:102000007047F0B503460024002600250020A1F506
:1020100010676A3F00D100BF1846C1F3421401F0B7
:102020001F06012707FA06F5012C01D10C3004E048
:10203000022C01D1103000E014301AB107682F4390
:10204000076002E00768AF430760F0BD1AB1838AFA
:102050000B43838202E0838A8B4383827047028A28
:102060004FF6F0731A400282028A0A4302827047D6
:1020700082894FF2FF731A40828182890A438281EA
:10208000704721B1828942F00202828104E0828994
:102090004FF6FD731A4082817047028A4FF6DF7354
:1020A0001A400282028A0A430282704721B1028AE0
:1020B00042F48042028204E0028A4BF6FF731A4027
:1020C00002827047C1F30802828070470146888807
:1020D000C0F308007047818941F001018181704798
:1020E000028BD2B20283028B42EA01220283704742
:1020F000028B02F47F420283028B0A430283704701
:1021000021B1828A42F02002828204E0828A4FF664
:10211000DF731A408282704721B1828A42F0100236
:10212000828204E0828A4FF6EF731A4082827047FF
:1021300021B1828A42F00802828204E0828A4FF64C
:10214000F7731A408282704721B1828942F40042BB
:10215000828103E08289C2F30E028281704721B13D
:10216000828A42F40062828204E0828A4FF2FF7324
:102170001A4082827047828A4FF6FB731A4082822D
:10218000828A0A438282704721B1828A42F0020227
:10219000828204E0828A4FF6FD731A408282704781
:1021A00002460020B1F5007F00D100BF13880B422A
:1021B00001D0012000E00020704701F40072B2F568
:1021C000007F00D100BFCA430280704770B502464D
:1021D0000024002300250020A1F510666A3E00D1EE
:1021E00000BFC1F3421501F01F03012606FA03F3F5
:1021F000012D02D19689334006E0022D02D1168AC4
:10220000334001E0968A33400C12012606FA04F4AA
:102210001688344013B10CB1012000E0002070BDDD
:1022200010B500220023A1F510646A3C00D100BF64
:102230000A1201249440A3B2DC43048010BD0000C4
:10224000003801400044004000480040004C00407D
:10225000005000407FB505460C4601210420FEF7E2
:102260008FFEADF80850ADF804400020ADF80A002C
:10227000ADF8060001A93548FEF7AEFF0122114670
:102280003248FFF720FB1E208DF8000000208DF85B
:10229000010003208DF8020001208DF8030068463C
:1022A000FEF781F901212948FFF7F2FA7FBD7FB5DA
:1022B00005460C4601210820FEF762FEADF80850E5
:1022C000ADF804400020ADF80A00ADF8060001A901
:1022D0001F48FEF781FF012211461D48FFF7F3FA60
:1022E00032208DF8000000208DF8010003208DF8C9
:1022F000020001208DF803006846FEF754F9012121
:102300001348FFF7C5FA7FBD10B501210F48FFF74D
:1023100088FD28B1012240F227710E48FFF771FEB7
:1023200001210A48FFF78EFD10BD10B501210848B4
:10233000FFF777FD28B1012240F227710548FFF72A
:1023400060FE01210248FFF77DFD10BD000800403E
:10235000000C00400044004000B585B0012104207D
:10236000FEF701FE01214807FEF70AFE1020ADF836
:10237000100000208DF8130003208DF8120004A92E
:102380004C48FEF78DFA10214A48FEF734FB002036
:102390000090019002900220039069460020FEF711
:1023A00076F901210020FEF78FF900210846FEF79B
:1023B000ECF905B000BD2DE9F0470446204600F0D9
:1023C000DFFE81463C49484600F0F8FD81464FF06B
:1023D0008B41484600F0E8FE824600F0C3FD074608
:1023E0004FF06632354B00F011FC054600F0DCFB87
:1023F0008146484600F0A4FE85B229460020FEF73B
:10240000C4F9BDE8F08700B585B001210420FEF7CE
:10241000AAFD01214807FEF7B3FD2020ADF810000A
:1024200000208DF8130003208DF8120004A9214824
:10243000FEF736FA20211F48FEF7DDFA0020009053
:10244000019002900220039069461020FEF71FF9C8
:1024500001211020FEF738F900210846FEF79CF90B
:1024600005B000BD2DE9F0470446204600F088FE87
:1024700081461149484600F0A1FD81464FF08B414D
:10248000484600F091FE824600F06CFD07464FF092
:1024900066320A4B00F0BAFB054600F085FB814628
:1024A000484600F04DFE85B229460020FEF774F93B
:1024B000BDE8F0870008014000007A4466660A40E3
:1024C00030B585B005460C4601210846FEF758FD9B
:1024D00001211020FEF747FD0220ADF81000042076
:1024E0008DF8130004A93748FEF7DAF902213548C0
:1024F000FEF783FAADF80850ADF804400020ADF8BF
:102500000A00ADF8060001A94FF08040FEF764FE16
:1025100004202D4908800020488001208880002068
:10252000C88008814FF08040FFF7E9F81C208DF843
:10253000000001208DF8010000208DF8020001202C
:102540008DF803006846FEF72EF801220521880762
:10255000FFF7B9F901218807FFF79AF905B030BDF7
:1025600010B501218807FFF75CFC40B117480088CF
:10257000401C164908804FF6FF7015490880042159
:102580000807FFF74EFCC0B14FF08040FFF72DFC6D
:102590000F4908800D490988C1EB01410C4A128896
:1025A0008818FDF7BEFF0020084908800849088008
:1025B00000214FF08040FFF7FFFB05218807FFF760
:1025C00041FC10BD000801406200002034000020E2
:1025D0003600002030B585B005460C4601210220AA
:1025E000FEF7CEFC01211020FEF7BDFC01210846BC
:1025F000FEF7B9FC01213A48FEF721FA8020ADF838
:10260000100004208DF8130004A93648FEF748F99D
:1026100080213448FEF7F1F9ADF80850ADF80440D8
:102620000020ADF80A00ADF8060001A92E48FEF71B
:10263000D3FD04202D490880002048800120888097
:102640000020C88008812848FFF759F81D208DF820
:10265000000001208DF8010000208DF8020001200B
:102660008DF803006846FDF79EFF012205211E48F4
:10267000FFF729F901211C48FFF70AF905B030BD21
:1026800010B501211848FFF7CCFB40B1184800886D
:10269000401C174908804FF6FF7016490880042136
:1026A0001148FFF7BEFBB0B10F48FFF79EFB114981
:1026B00008800F490988C1EB01410E4A1288881829
:1026C000FDF738FF00200A4908800A4908800021E8
:1026D0000548FFF771FB05210348FFF7B3FB10BD69
:1026E000000C1A0000100140000400406C000020A3
:1026F000380000203A00002008B501214020FEF7F4
:1027000032FC10208DF8030003208DF80200042015
:10271000ADF8000069460948FEF7C2F804210748F1
:10272000FEF769F90820ADF8000069460348FEF796
:10273000B7F808210148FEF75EF908BD001801400E
:1027400010B54FF4A060FDF729FF10BD10B56FF074
:102750000400FDF773FF2D4800682D49B0FBF1F030
:102760002C4908700846007800EB4001C1EBC0100E
:102770004FF6FF7101EAC0002749088010BD0146ED
:10278000244A12784A434FF0E0235A6100229A61AA
:102790001A46126942F001021A6100BF4FF0E022AE
:1027A000106910F0010F02D010F4803FF6D04FF006
:1027B000E022126922F001024FF0E0231A610022A8
:1027C0009A6170470146144A12884A434FF0E02349
:1027D0005A6100229A611A46126942F001021A6196
:1027E00000BF4FF0E022106910F0010F02D010F48A
:1027F000803FF6D04FF0E022126922F001024FF044
:10280000E0231A6100229A61704700000000002056
:1028100000127A003C0000203E00002010B586B077
:10282000044601214804FEF7ABFB01212020FEF7FE
:102830009AFB01210846FEF796FB01210820FEF7CE
:10284000FEF82020ADF8140003208DF816001820A3
:102850008DF8170005A9B048FEF722F84020ADF822
:10286000140004208DF8170005A9AB48FEF718F8EE
:1028700026208DF8000003208DF801008DF802005D
:1028800001208DF803006846FDF78DFE01940020BD
:10289000ADF80800ADF80A00ADF80C00ADF8100076
:1028A0000C20ADF80E0001A99C48FFF712FB012295
:1028B00040F225519948FFF7A4FB01219748FFF703
:1028C00094FB06B010BD70B504460D4616460A2EA0
:1028D00050D2DFE806F0050A121A222A2F373F47A6
:1028E00050218E48FFF7EEFB45E08D4800EB143099
:1028F00001788A48FFF7E6FB3DE08948C4F30322EC
:10290000815C8648FFF7DEFB35E08548C4F303129F
:10291000815C8248FFF7D6FB2DE004F00F00804A6F
:10292000115C7E48FFF7CEFB25E051217B48FFF785
:10293000C9FB20E07A4800EB153001787748FFF7B3
:10294000C1FB18E07648C5F30322815C7348FFF7AA
:10295000B9FB10E07248C5F30312815C6F48FFF7C2
:10296000B1FB08E005F00F006D4A115C6B48FFF702
:10297000A9FB00E000BF00BF70BD70B504460D4666
:10298000092D4CD2DFE805F0050A131B232B333B3E
:10299000430050216148FFF795FB00BF0F2000EA7C
:1029A00014705F4A115C5D48FFF78CFB38E05C48AF
:1029B000C4F30362815C5948FFF784FB30E0584858
:1029C000C4F30352815C5548FFF77CFB28E0544870
:1029D000C4F30342815C5148FFF774FB20E0504888
:1029E000C4F30332815C4D48FFF76CFB18E04C48A0
:1029F000C4F30322815C4948FFF764FB10E04848B8
:102A0000C4F30312815C4548FFF75CFB08E004F067
:102A10000F00434A115C4148FFF754FB00E000BF40
:102A200000BF70BD70B540F225513C48FFF7CEFBAA
:102A3000002849D03948FFF749FBC4B2002C43D0E5
:102A40004D2C02D04E2C14D109E0012035490870DC
:102A5000FDF752FD801E40B23349087033E002207A
:102A600030490870FDF748FD801E40B22E490870BD
:102A700029E02D4890F90000002810DB2A48007852
:102A8000800004FA00F02949098808442749088091
:102A900025480078401E40B22349087012E02148C2
:102AA0000078012802D002280AD104E01F480088DB
:102AB000FFF781FC05E01D480088FFF7D3FC00E02C
:102AC00000BF00BF00BF00BF40F227711348FFF7EF
:102AD0007DFB00B3FDF70EFD15490978884211DD35
:102AE000FDF72EFD0546FDF722FD0646104802784B
:102AF00029463046FFF7E7FE0D480078401C0C4998
:102B0000087008E0002240F227710448FFF779FAC4
:102B100000200749087070BD0014014000440040C7
:102B200041000020510000205400002052000020ED
:102B300040000020704770477047754600F028F845
:102B4000AE4605006946534620F00700854618B09A
:102B500020B5FDF711FDBDE820404FF000064FF015
:102B600000074FF000084FF0000B21F00701AC46C2
:102B7000ACE8C009ACE8C009ACE8C009ACE8C009E1
:102B80008D4670470446AFF300802046FDF727FBD3
:102B9000004870477800002001491820ABBEFEE7CE
:102BA000260002007047000021F00042A2F16052AE
:102BB000B2F5801F01F0004328BFD2F17F6C0BD922
:102BC0005FEA001C43EAC20242EB507018BF704734
:102BD00028BF20F001007047B2F5801FBCBF184627
:102BE00070474FEA410C1CF5001F02D2084600F066
:102BF000A2BB70B500F062F900000089FFF7F6BFD4
:102C00004FF00040A0F58000704700002DE9C04162
:102C100030B4DFF8A0C23CEA111418BF3CEA131428
:102C200000F0EC8081EA03051CEA111444EAD57433
:102C300018BF1CEA131500F0C780A4EB05044FF081
:102C4000004545EAC12145EAC32341EA505143EA20
:102C5000525304F17F74994204F500344FEAC020C6
:102C60004FEAC22208BF904200F09C804FEA1365F1
:102C70000FF24016765D4FEA134506FB05F7C7F1E4
:102C8000807706FB07F74FEAD737A7FB0368764242
:102C9000C8F58038A7FB06CE38BFA8F1010807FBAE
:102CA00008E64FF0000EA6FB028CE6FB03CEDCF13B
:102CB000000CCEF1004E38BFAEF1010EA6FB0C5851
:102CC0004FF000074FF00005E6FB0E87A1FB08C69A
:102CD000A0FB07CE16EB0E0645F10005E1FB0765EC
:102CE00015F1E04E7EBFA4F580345FEA46066D41E3
:102CF00016F1800745F100054FEA17274FEA0666EF
:102D000047EA0567A6F1DE46B6F1805F4FEA152572
:102D10001FD9384624F0010C05EBC471BCF1FE6FDD
:102D200001EB0C1102D8F0BCBDE8008124425CBF6D
:102D300001F5801E9EEAC47F02D4F0BCBDE800818C
:102D4000244238D4F0BCA1F1C041BDE8004100F0FC
:102D500003B94FEAD22242EA43524FEAD323A7FBF8
:102D600002864FEAD02040EA415007FB03661EEA84
:102D70000E0F4FEAD12105FB026658BFA6EB0056A5
:102D8000B6EB00564FEA520E4EEAC37E18EB0E0E1B
:102D900056EB530EBDD518EB02085E417F1C55F172
:102DA0000005B6E74FF480154FF000074FF000061E
:102DB0004FF00008ADE7F0BC4FF0000001F1C0415A
:102DC00001F00041BDE8008111EA0C1F0CEA131567
:102DD00000D00CE013EA0C1F00F025804FF000003B
:102DE000F0BC81EA030101F00041BDE80081F0BCC4
:102DF000BDE8004181EA030100F0AEB8F0BCBDE8D7
:102E0000004170B500F05AF8097EFC3E00F007B8AA
:102E100081EA03014FF0000001F00041704781EAB0
:102E2000030100F099B8F0BCBDE800414FF000008C
:102E300021497047FFFDFBF9F7F5F4F2F0EEEDEBF9
:102E4000E9E8E6E4E3E1E0DEDDDBDAD8D7D5D4D3A8
:102E5000D1D0CFCDCCCBCAC8C7C6C5C4C2C1C0BFF4
:102E6000BEBDBCBBBAB9B8B7B6B5B4B3B2B1B0AFFA
:102E7000AEADACABAAA9A8A8A7A6A5A4A3A3A2A1DE
:102E8000A09F9F9E9D9C9C9B9A9999989797969599
:102E900095949393929191908F8F8E8E8D8C8C8B35
:102EA0008B8A8989888887878685858484838382BD
:102EB000828181800000FF070000F87F0EF1020E82
:102EC0002EF0030E5EF8046B364205D4012A43EB64
:102ED000030515F5001F12D8012841EB010C1CF564
:102EE000001F0CD80ED14FEAD17C15F5001F0CEB5A
:102EF0004C0C0CF1020C08BF4CEBD37C04E04FF0FF
:102F0000080C01E04FEAD37C0CEB4C0526FA05F6E1
:102F100006F00706B6F1040C06D20EEB860CBDE8EF
:102F200070404CF0010C6047DFE80CF0090B020226
:102F30004FF000414FF00000A1F5002170BD19468F
:102F40001046012851EB010418BFD4F5001484BFCA
:102F5000002001F0004170BD0808A0F500114FEA03
:102F60003101704743004FEAD30C4FEA3C0C434019
:102F70001FBF40070CF1605113F0FE4F70471CF06B
:102F8000006F03D100200CF0004170470CF00043AB
:102F900043EA507010B540EACC0000F086F900BF5B
:102FA000000000924FEA0001FFF7D6BF4FF000414A
:102FB0004FF00000A1F50021704700004FF47F0C96
:102FC0001CEAD0121EBF1CEAD11392EA0C0F93EA3E
:102FD0000C0F00F0858090EA010F48BF42F4807228
:102FE00040F4000C41F400002CF07F4120F07F40C1
:102FF00000B58142A2EB03020FF2081CACEB504E6D
:10300000C0F100009EF800E04FEA4E0E00FB0EFCFF
:1030100038BF49004FEA2C1C02F5FA020CFB0EF3F4
:103020004FEACE1E4FEA112C4FEAC1210EEB635E30
:1030300042EB22420EFB0CFC4FEA1C5300FB031137
:103040004FEA112C4FEA01310EFB0CFC4FEADC4C2D
:1030500000FB0C11C14228BF09184CEB03335DF88B
:1030600004EB10EB410143EBC250B2F57C0F38BFCB
:10307000704729D512F0F00F1CBF00F1C04000F0DE
:1030800000407047008182838485868788898B8C85
:103090008D8E8F919293959697999A9C9D9FA0A2C1
:1030A000A3A5A7A8AAACAEB0B2B3B5B7B9BCBEC011
:1030B000C2C5C7C9CCCED1D4D7D9DCDFE2E6E9ECB2
:1030C000F0F3F7FAFE0000004FEA400C0CF1807CB0
:1030D000BCF17E4F28BF7047B0F1C04000F02BB963
:1030E00090EA010F0CEAD11348BF42F480726245A6
:1030F00038BF634507D213F47F0F16D080EA010072
:1031000000F00040704710B500F0CFF8097EFC3E9B
:1031100000F005B880EA010000F00040704780EA46
:10312000010000F0004000F006B912F47F0F04BF68
:103130000248704780EA010000F0FDB80000C07F3F
:10314000C10DD1F19E0206DB4FEA002343F000439C
:1031500023FA02F07047004207D54FEA4001B1F16F
:10316000FE4F02D24FF00000704710B500F09DF8FE
:1031700049922480002070476FEA200070470000C9
:10318000B0FA80F310FA03F2C3F19D030AD0D90517
:1031900001EB1220530638BF704700F1010008BF51
:1031A00020F00100704700004FF47F0C1CEAD012A1
:1031B0001EBF1CEAD11392EA0C0F93EA0C0F00F029
:1031C000478090EA010F48BF42F480724FF0004CF4
:1031D0004CEA00204CEA012102EB0302A0FB0113A0
:1031E000A2F50002002918BF43F001035B0028BFCD
:1031F0004FEA330342EB22425FEA132C4CEBC250FE
:103200002EBFBCEB436FB2F57C0F70474FEA036CE7
:10321000BCF1004F08BF20F00100B2F57C0F38BFB1
:1032200070470BD582F0FF0212F5803FC8BF704790
:1032300000F1C040D8BF00F00040704700F5000C1E
:103240005FEA4C0C48BF7047B0F1C04000F073B863
:1032500090EA010F0CEAD11348BF42F48072624534
:1032600038BF634504D280EA010000F00040704797
:1032700010B500F01AF800BF8900013E00F007B851
:1032800000F009B85FEA410C5FEA1C6C08D080EAE4
:10329000010000F050B85FEA400C5FEA1C6CF6D108
:1032A0004FF00040A0F5800070470EF1020E2EF0A6
:1032B000030E5EF8044B244204D44FEA4102B2F1FB
:1032C0007F4F11D84FEA4003B3F17F4F0CD80ED196
:1032D0004FEAD07CB2F17F4F0CEB4C0C0CF1020C9E
:1032E00008BF4CEBD17C04E04FF0080C01E04FEA42
:1032F000D17C0CEB4C0324FA03F404F00704B4F182
:10330000040C06D20EEB840CBDE810404CF0010C0E
:103310006047DFE80CF0070802024FF00040A0F51C
:10332000800010BD0846420018BFD2F1807288BFED
:1033300000F0004010BDFF2141EAD050C0057047A9
:103340006033000800000020580000008C010008D5
:10335000B83300085800002080060000A8010008CB
:1033600000A24A0400000000000000000102030463
:10337000060708090000000000000000000000002F
:10338000000000000102030401020304060708090B
:103390000204060800000000000000000000000019
:1033A00000303132333435363738394142434445C1
:0833B0004600000000000000CF
:04000005080001519D
:00000001FF
