:020000040800F2
:10000000B0070020050500085D0200085F02000837
:1000100063020008670200086B020008000000008D
:100020000000000000000000000000006F02000857
:100030007102000800000000730200087502000849
:100040001F0500081F0500081F0500081F05000800
:100050001F0500081F0500081F0500081F050008F0
:100060001F0500081F0500081F0500081F050008E0
:100070001F0500081F0500081F0500081F050008D0
:100080001F0500081F0500081F0500081F050008C0
:100090001F0500081F0500081F0500081F050008B0
:1000A0001F0500081F0500081F0500081F050008A0
:1000B0005B240008C5250008532100081F0500081F
:1000C0001F0500081F0500081F0500081F05000880
:1000D0001F0500081F050008452900081F05000826
:1000E0001F0500081F0500081F0500081F05000860
:1000F0001F0500081F0500081F0500081F05000850
:100100001F0500081F050008BF2100081F05000883
:100110001F0500081F0500081F0500081F0500082F
:100120001F0500081F0500081F0500081F0500081F
:1001300000F002F800F03AF80AA090E8000C8244BF
:100140008344AAF10107DA4501D100F02FF8AFF29C
:10015000090EBAE80F0013F0010F18BFFB1A43F0A5
:1001600001031847FC3000001C310000103A24BF86
:1001700078C878C1FAD8520724BF30C830C144BF0C
:1001800004680C607047000000230024002500264E
:10019000103A28BF78C1FBD8520728BF30C148BFEA
:1001A0000B6070471FB51FBD10B510BD02F0A5FC58
:1001B0001146FFF7F7FF00F009F802F0C3FC03B4A3
:1001C000FFF7F2FF03BC02F0C7FC000002F048FAA0
:1001D00002F04CFA02F020FA41F61F4140F2F3100F
:1001E00001F08BFF472141F2873001F059FF0021D8
:1001F0004FF6FF7002F0D0F800214FF6FF7002F0CA
:100200008BF94FF4E13002F099FA01F0F5FF02F0BA
:1002100057F8002002F01FF8002002F080F817E0E5
:1002200000200C4908604FF001000B49C1F88C0117
:100230004FF4FA7002F056FA0120064908604FF0B8
:1002400000000549C1F88C014FF4FA7002F04AFA37
:10025000E6E700008801234200002342704700BF08
:10026000FEE700BFFEE700BFFEE700BFFEE7704706
:10027000704770477047000000210020674A1268ED
:1002800042F48032654B1A6000BF644A126802F47F
:100290000030491C10B9B1F5A06FF6D15F4A126861
:1002A00012F4003F01D0012000E00020012842D1DB
:1002B0005B4A126842F01002594B1A601A461268E3
:1002C00022F003021A601A46126842F002021A6013
:1002D000524A5268514B5A601A4652685A601A463E
:1002E000526842F480625A601A46526822F47C12C4
:1002F0005A601A46526842F4E8125A601A46126866
:1003000042F080721A6000BF444A126812F0007F07
:10031000FAD0424A526822F00302404B5A601A4611
:10032000526842F002025A6000BF3C4A526802F032
:100330000C02082AF9D1704710B5FFF79DFF10BDD8
:1003400010B53648006840F001003449086008469E
:1003500040683449084031494860084600683249DD
:1003600008402E4908600846006820F48020086094
:100370000846406820F4FE0048604FF41F00886083
:10038000FFF7DAFF4FF000602849086010BD10B594
:10039000002100200022214B5B6803F00C0121B1F9
:1003A000042906D0082928D107E0214B214C2360DD
:1003B00027E01F4B1F4C236023E0184B5B6803F4BE
:1003C0007010164B5B6803F48032022303EB9040FD
:1003D00022B9194B4343174C23600DE00F4B5B6868
:1003E00013F4003F04D0144B4343124C236003E04A
:1003F0000F4B43430F4C236003E00D4B0D4C236028
:1004000000BF00BF054B5B68C3F303130B4CE15CFB
:10041000084B1B68CB40074C236010BD0010024006
:10042000002002400000FFF8FFFFF6FE08ED00E0AC
:1004300000127A000000002000093D0004000020A6
:100440000A207047052070472549087070472448E6
:10045000007870470A2901DA224A50547047014651
:100460000A2902DA1F48405C70475520FCE71E4904
:10047000B1FBF0F11D4A118070471C48008870479D
:100480001949B1FBF0F11A4A1180704718480088E9
:10049000704718480088401C164908807047154866
:1004A000008870470020134908807047124908806F
:1004B000704711480088704710480088401C0F4959
:1004C000088070470D480088704700200B4908805D
:1004D00070470B4908807047094800887047000042
:1004E000140000209C000020FFA14A0416000020F8
:1004F000180000201A0000201E0000201C00002010
:10050000200000200948804709480047FEE7FEE731
:10051000FEE7FEE7FEE7FEE7FEE7FEE7FEE7FEE7B3
:1005200004480549054A064B70470000410300088E
:1005300031010008B0010020B0070020B003002006
:10054000B003002031490143314A1160704770B552
:10055000002100230F22C4780CB32D4C246804F42E
:10056000E064C4F5E064210AC1F10403CA404478A0
:1005700004FA03F18478144021430901254C0678DC
:10058000A155047804F01F050124AC4005786D11D5
:100590004FF0E02606EB8505C5F8004109E0047838
:1005A00004F01F050124AC401B4D0678761145F878
:1005B000264070BD194A0A400243154B1B1F1A60A2
:1005C000704739B1124A121D12680243104B1B1DAD
:1005D0001A6006E00E4A121D126882430C4B1B1D66
:1005E0001A607047042808D14FF0E021096941F0F2
:1005F00004014FF0E022116107E04FF0E0210969AA
:1006000021F004014FF0E022116170470000FA056B
:100610000CED00E000E400E080E100E080FFFF1F5F
:1006200010B50121480700F0E8FB00214FF0005011
:1006300000F0E3FB10BD30B500220023514C2268CE
:1006400040F6FE748440A243D1E900452C438D68F6
:100650002C43CD6844EA050303FA00F42243494CD5
:10066000226030BD0021016041608160C16070473F
:1006700039B1444A1268012383401A43414B1A603E
:1006800006E0404A1268012383409A433D4B1A60BA
:10069000704741B13B4A12684FF4805383401A437C
:1006A000384B1A6007E0374A12684FF48053834092
:1006B0009A43344B1A60704710B551B1314A121D3C
:1006C000126804090123A3401A432E4B1B1D1A6014
:1006D00009E02C4A121D126804090123A3409A4321
:1006E000284B1B1D1A6010BD40B12649091D096821
:1006F00041F00301234A121D116007E02149091D41
:10070000096821F003011F4A121D1160704710B5DE
:100710003AB11C4B1B6801FA00F42343194C2360C7
:1007200006E0184B1B6801FA00F4A343154C236044
:1007300010BD0022134A00F108031A4411607047EB
:100740000022104A00F114031A441160704730B5BA
:1007500000240023082802D142EA012401E042EAF1
:100760000144084B00F120052B441C6030BD0146BC
:100770000022044A2C2000EB91000244106880B251
:10078000704700000074004010B50446CA48844217
:1007900008D10121042000F023FB0021042000F0F7
:1007A0001FFB46E0C548844208D10121082000F023
:1007B00017FB0021082000F013FB3AE0C0488442F8
:1007C00008D10121102000F00BFB0021102000F0C7
:1007D00007FB2EE0BB48844208D10121202000F015
:1007E000FFFA0021202000F0FBFA22E0B648844204
:1007F00008D10121402000F0F3FA0021402000F050
:10080000EFFA16E0B148844208D10121802000F0BF
:10081000E7FA0021802000F0E3FA0AE0AC488442C5
:1008200007D10121801500F0DBFA0021A01500F0AE
:10083000D7FA10BD10B50121084600F0D1FA002109
:10084000012000F0CDFA10BD2DE9F041024600254F
:100850000026002000230024002791F803C00CF09C
:100860000F0591F803C01CF0100F03D091F802C0DF
:100870004CEA050591F800C0BCF1000F31D01468B6
:1008800000202BE04FF0010C0CFA00F3B1F800C08F
:100890000CEA03069E4220D183004FF00F0C0CFAA5
:1008A00003F7BC4305FA03FC4CEA040491F803C0C7
:1008B000BCF1280F06D14FF0010C0CFA00FCC2F875
:1008C00014C00AE091F803C0BCF1480F05D14FF005
:1008D000010C0CFA00FCC2F810C0401C0828D1D34F
:1008E0001460B1F800C0BCF1FF0F34DD5468002083
:1008F0002EE000F1080C4FF0010808FA0CF3B1F8F3
:1009000000C00CEA03069E4221D183004FF00F0C79
:100910000CFA03F7BC4305FA03FC4CEA040491F813
:1009200003C0BCF1280F05D100F1080C08FA0CF83F
:10093000C2F8148091F803C0BCF1480F07D100F150
:10094000080C4FF0010808FA0CF8C2F81080401C9F
:100950000828CED35460BDE8F0814FF6FF710180C6
:10096000022181700421C170704702460020936803
:100970000B4201D0012000E000207047014688684A
:1009800080B2704702460020D3680B4201D001209C
:1009900000E0002070470146C86880B270470161DE
:1009A0007047416170470AB1016100E041617047E1
:1009B000C16070474FF480320A4382618161826175
:1009C00082698269704702460020424B18684FF6E0
:1009D0008073184040EA021008433E4B186070478D
:1009E0003D49C8617047F0B50A4600230024002144
:1009F000002500F00046B6F1004F02D1354EF169F6
:100A000001E0344E7168C0F3034583B200F4401630
:100A1000B6F5401F08D121F070612E4E766826F0A1
:100A200070662C4F7E6012E000F48016B6F5801FD1
:100A300006D1032606FA05F4A14341F0706106E0F1
:100A4000460D360103FA06F6B14341F0706122B15A
:100A5000460D360103FA06F6314300F00046B6F1C2
:100A6000004F02D11B4EF16101E01A4E7160F0BDE2
:100A700030B500228B071C0F0F2303FA04F2154B2D
:100A800008338C1053F824309343124C08348D10E3
:100A900044F8253023468C1053F824308C07240F5B
:100AA00000FA04F423430B4C08348D1044F825302D
:100AB00030BD0A490860704700080140000C014041
:100AC000001001400014014000180140001C0140CA
:100AD000002001400000014000002042DC002042D4
:100AE000DB48006840F00100D949086008464068CA
:100AF000D8490840D649486008460068D6490840A9
:100B0000D34908600846006820F480200860084641
:100B1000406820F4FE0048604FF41F008860704772
:100B2000CB49096821F48031C94A1160114609682E
:100B300021F480211160B0F5803F03D0B0F5802F03
:100B40000ED106E0C249096841F48031C04A116003
:100B500007E0BF49096841F4A021BD4A116000E0E7
:100B600000BF00BF704710B50146002200230020DF
:100B70004A11012A02D1B64C236806E0022A02D1AA
:100B8000B34C236A01E0B24C636A01F01F020124F6
:100B900094401C4201D0012000E0002010BD70B53F
:100BA00000240025002600BF3120FFF7DCFF0646A9
:100BB000641CB4F5A06F01D0002EF5D03120FFF7F2
:100BC000D2FF08B1012500E00025284670BD01468E
:100BD00000209F4A106820F0F80040EAC100106031
:100BE00070479E490860704702460020984B58683D
:100BF00020F47C1042EA01031843954B586070477B
:100C000096490866704701460020914A506820F0D6
:100C100003000843506070478D48406800F00C00A6
:100C20007047014600208A4A506820F0F0000843CF
:100C30005060704701460020854A506820F4E0600B
:100C400008435060704701460020814A506820F4F4
:100C5000605040EAC1005060704729B17C4A527A26
:100C600002437B4B5A7204E0794A527A8243784BB2
:100C70005A7270477A490860704701460020744AEA
:100C8000506820F440400843506070470021754A86
:100C900011706F4A82F82010012802D0042808D170
:100CA00003E001216F4A117004E005216D4A1170C3
:100CB00000E000BF00BF70476B490860704764499F
:100CC000096A0143624A1162704767494439086002
:100CD000704730B500210022002400235C4D6D6870
:100CE00005F00C0121B1042905D0082923D105E024
:100CF0005E4D056022E05D4D05601FE0544D6D685E
:100D000005F47012524D6D6805F48034022505EB30
:100D100092421CB9564D554305600BE04C4D6D6831
:100D200015F4003F03D0524D5543056002E04F4D8E
:100D30005543056002E04D4D056000BF00BF444DC6
:100D40006D6805F0F00109094A4D6B5C0568DD40EE
:100D500045603F4D6D6805F4E061090A454D6B5CE7
:100D60004568DD4085603A4D6D6805F46051C90AFB
:100D7000404D6B5C4568DD40C560354D6D6805F4E0
:100D80004041890B3C4D6B5CC568B5FBF3F50561D3
:100D900030BD29B12E4A526902432D4B5A6104E0FD
:100DA0002B4A526982432A4B5A61704729B1284A1B
:100DB00092690243264B9A6104E0254A9269824374
:100DC000234B9A61704729B1214AD2690243204BD3
:100DD000DA6104E01E4AD26982431D4BDA61704732
:100DE00029B11B4AD2680243194BDA6004E0184A61
:100DF000D2688243164BDA60704729B1144A1269EF
:100E00000243134B1A6104E0114A12698243104BEA
:100E10001A61704714494039086070470F49C86427
:100E200070470B49C87170470948406A40F08070AC
:100E300007494862704701460020054A92680A4205
:100E400001D0012000E000207047014988727047FE
:100E5000001002400000FFF8FFFFF6FE00004242D3
:100E6000D8004242201002408004424200127A0020
:100E700000093D00280000203800002010B504467D
:100E8000FE48844208D10121C014FFF7A9FF0021C8
:100E9000E014FFF7A5FFC4E0B4F1804F08D10121B1
:100EA0000846FFF7AAFF00210120FFF7A6FFB8E0E0
:100EB000F348844208D101210220FFF79EFF002160
:100EC0000220FFF79AFFACE0EE48844208D10121EE
:100ED0000420FFF792FF00210420FFF78EFFA0E01F
:100EE000E948844208D101210820FFF786FF00214C
:100EF0000820FFF782FF94E0E448844208D10121F2
:100F00001020FFF77AFF00211020FFF776FF88E01E
:100F1000DF48844208D101212020FFF76EFF002125
:100F20002020FFF76AFF7CE0DA48844208D10121E3
:100F30004014FFF755FF00216014FFF751FF70E0E8
:100F4000D548844209D10121C804FFF749FF002197
:100F50004FF40020FFF744FF63E0D048844209D1FA
:100F600001210805FFF73CFF00214FF48010FFF737
:100F700037FF56E0CA48844209D101214805FFF7EE
:100F80002FFF00214FF40010FFF72AFF49E0C5486A
:100F9000844208D101214020FFF72FFF002140208B
:100FA000FFF72BFF3DE0C048844208D1012180209B
:100FB000FFF723FF00218020FFF71FFF31E0BB4830
:100FC000844208D101218015FFF717FF0021A015E9
:100FD000FFF713FF25E0B648844209D10121080438
:100FE000FFF7FEFE00214FF48030FFF7F9FE18E016
:100FF000B048844209D101214804FFF7F1FE0021E5
:101000004FF40030FFF7ECFE0BE0AB48844208D110
:1010100001218804FFF7E4FE00214FF48020FFF750
:10102000DFFE10BD00220288944B98420ED0994BEF
:1010300098420BD0B0F1804F08D0914B984205D028
:10104000904B984202D0904B984204D14FF68F7348
:101050001A404B881A438D4B984207D08C4B9842CC
:1010600004D04FF6FF431A40CB881A4302808B8886
:1010700083850B880385814B98420BD0854B984222
:1010800008D08B4B984205D08A4B984202D08A4BAD
:10109000984201D10B7A038601238382704770B591
:1010A000002400220023058C4FF6FE76354005848F
:1010B000028C8388048B4FF68F752C40B51E2C4014
:1010C0000D882C43751E2A400D892A434D882A43DA
:1010D0006A4DA8420BD06F4DA84208D0744DA8426B
:1010E00005D0744DA84202D0734DA84213D14FF6DB
:1010F000F7752A404D892A434FF6FB752A408D88A3
:101100002A434FF6FF652B404FF6FF552B408D8944
:101110002B43CD892B4383800483CD88858602842D
:1011200070BD70B5002400220023058C4FF6EF76C9
:1011300035400584028C8388048B48F6FF752C406B
:101140004FF6FF452C400D884FF6FF7606EA052541
:101150002C434FF6DF752A400D8906EA05152A4310
:101160004D8806EA05152A43444DA84202D0494D50
:10117000A8421DD14FF67F752A404D894FF6FF7664
:1011800006EA05152A434FF6BF752A408D8806EA00
:1011900005152A434FF6FF352B404FF2FF752B40C4
:1011A0008D8906EA85052B43CD8906EA85052B4303
:1011B00083800483CD880587028470BD70B50024C8
:1011C00000220023058C4FF6FF6635400584028C13
:1011D0008388848B4FF68F752C404FF6FC752C401E
:1011E0000D882C434FF6FF552A400D894FF6FF76A8
:1011F00006EA05252A434D8806EA05252A431F4DA0
:10120000A84202D0234DA8421DD14FF2FF752A40BB
:101210004D894FF6FF7606EA05252A434FF6FF353E
:101220002A408D8806EA05252A434EF6FF752B4095
:101230004DF6FF752B408D8906EA05152B43CD89A8
:1012400006EA05152B4383808483CD888587028435
:1012500070BD70B5002200230024058C4EF6FF7689
:1012600035400584038C8488828B48F6FF752A40BC
:101270004FF6FF452A400D8820E00000002C014079
:101280000004004000080040000C00400010004036
:101290000014004000340140004C01400050014067
:1012A0000054014000180040001C00400020004095
:1012B0000040014000440140004801404FF6FF76E5
:1012C00006EA05252A434DF6FF752B400D8906EAEF
:1012D00005352B434D8806EA05352B43FA4DA842C8
:1012E00002D0FA4DA84208D14BF6FF752C408D89EB
:1012F0004FF6FF7606EA85152C4384808283CD88DD
:10130000A0F84050038470BD828B4FF2FF331A4027
:101310008283828B4FF6FF7303EA01231A43828391
:101320007047F0B50C461546002200210026078CB8
:101330004EF6FF7C07EA0C070784828B018C4FF680
:10134000FF7707EA043640F6FF473A404FF6FF774B
:1013500007EA05273A434FF6FF7707EA03373A4390
:10136000D94FB8420ED0D94FB8420BD0B0F1804F10
:1013700008D0D74FB84205D0D64FB84202D0D64F8A
:10138000B84206D14DF6FF77394046F480573943CD
:1013900005E047F6FF57394044F4805739438283CC
:1013A0000184F0BD828B4FF6F3731A408283828BE7
:1013B0000A4382837047F0B50C461546002200218F
:1013C0000026078C4FF6FF6C07EA0C070784828B18
:1013D000018C4FF6FF7707EA04264FF60C773A4068
:1013E0004FF6FF7707EA03172F433A43B64FB84249
:1013F0000ED0B64FB8420BD0B0F1804F08D0B44FEA
:10140000B84205D0B34FB84202D0B34FB84206D16C
:101410004FF6FF57394046F48077394305E04FF2E5
:10142000FF57394044F48077394382830184F0BD0B
:10143000028B4FF2FF331A400283028B4FF6FF7389
:1014400003EA01231A4302837047F0B50C461546A0
:10145000002200210026078C4FF6EF7C07EA0C07DC
:101460000784028B018C4FF6FF7707EA041640F6DB
:10147000FF473A404FF6FF7707EA03373A434FF604
:10148000FF7707EA05273A438F4FB8420ED08F4FB8
:10149000B8420BD0B0F1804F08D08D4FB84205D084
:1014A0008C4FB84202D08C4FB84206D14FF6DF774E
:1014B000394046F01007394305E04FF65F77394071
:1014C00044F01007394302830184F0BD028B4FF6CC
:1014D000F3731A400283028B0A4302837047F0B50C
:1014E0000C46154600220021068C4FF6FE773E4042
:1014F0000684028B018C4FF60C7632407E1C06EA85
:1015000003162E433243704EB0420ED06F4EB0429F
:101510000BD0B0F1804F08D06D4EB04205D06D4E6B
:10152000B04202D06C4EB04206D14FF6FD7631404B
:1015300044F00106314305E04FF6F576314044F0C2
:101540000106314302830184F0BD70B505460C46A7
:101550005D4885420ED05D4885420BD0B5F1804F85
:1015600008D05B48854205D05A48854202D05A4887
:10157000854200D100E000BF208850B92389A288AD
:1015800061882846FFF7ABFFE1882846FFF79EFFFA
:1015900025E0208804280AD12389A288618828466A
:1015A000FFF753FFE1882846FFF742FF17E0208846
:1015B00008280AD12389A28861882846FFF7FBFE04
:1015C000E1882846FFF7EEFE09E02389A2886188BA
:1015D0002846FFF7A6FEE1882846FFF795FE70BD76
:1015E0002DE9F04105460C4600260127608808B920
:1015F000022600E00026A088012801D1022700E091
:1016000001272088A0B92389A28861882846FFF78E
:1016100066FFE1882846FFF759FF23893A4631469D
:101620002846FFF712FFE1882846FFF701FF13E085
:101630002389A28861882846FFF707FFE1882846AA
:10164000FFF7F6FE23893A4631462846FFF747FF63
:10165000E1882846FFF73AFFBDE8F0810A884B8809
:101660001A438B881A43CB881A430B891A434B8938
:101670001A438B891A43A0F8442070474FF6FF7134
:10168000818000210180C18041800172704700216A
:10169000018041808180C180018141818181C1813E
:1016A0007047002101804180012181800021C1809B
:1016B000018170470021018041808180C1800181CA
:1016C0004181818170470000002C014000340140BD
:1016D0000004004000080040000C004021B10288D6
:1016E00042F00102028004E002884FF6FE731A40C5
:1016F0000280704731B1B0F8442042F40042A0F8B3
:10170000442005E0B0F84420C2F30E02A0F84420C3
:1017100070471AB183890B43838102E083898B432D
:10172000838170478182704741EA0203A0F8483004
:1017300070471AB183890B43838102E083898B430D
:101740008381704701894FF6F8721140018170471B
:101750000A46002101894FF68F7319401143018118
:10176000704730B504460D4629462046FFF7F0FF86
:10177000208940F00700208130BD2DE9F04104466A
:101780000D4616461F46602D06D13B4601223146C6
:101790002046FFF75AFE05E03B460122314620462F
:1017A000FFF79DFE29462046FFF7D2FF208940F033
:1017B00007002081BDE8F08130B50C460021018989
:1017C000C9B24FF6FF7505EA0325154325432943A2
:1017D000018130BD2DE9F04105460E461746984679
:1017E000002443463A4631462846FFF7E5FF2C8958
:1017F0004FF6F870044044F007044FF68F70044031
:1018000044F070042C81BDE8F081F0B504460D462B
:1018100016461F463B46324629462046FFF7CCFF78
:10182000208940F480402081F0BD0185828270478C
:101830000A46002101884FF68F7319401143018039
:101840007047F0B50C4615461E46002100220023C5
:101850000189028B038C4FF6F877394021434FF60C
:10186000FC473A4040F201173A434FF6DD773B40E0
:101870004FF6FF7707EA06172F433B4301810283A8
:101880000384F0BD0A460021018B4FF68F73194087
:101890001143018370470A460021018B48F6FF730C
:1018A00019404FF6FF7303EA02231943018370477F
:1018B0000A460021818B4FF68F73194011438183B3
:1018C00070470A460021818B48F6FF7319404FF696
:1018D000FF7303EA022319438183704721B1028811
:1018E00042F08002028004E002884FF67F731A40C3
:1018F0000280704721B1828842F00402828004E0B5
:1019000082884FF6FB731A408280704721B182882B
:1019100042F00802828004E082884FF6F7731A4092
:101920008280704721B1828842F00102828004E007
:1019300082884FF6FE731A40828070470A46002163
:10194000018B4FF6F77319401143018370470A4624
:101950000021018B4FF2FF7319404FF6FF7303EA2A
:1019600002231943018370470A460021818B4FF6F9
:10197000F77319401143818370470A460021818B18
:101980004FF2FF7319404FF6FF7303EA0223194326
:10199000818370470A460021018B4FF6FB73194083
:1019A0001143018370470A460021018B4FF6FF3334
:1019B00019404FF6FF7303EA02231943018370476E
:1019C0000A460021818B4FF6FB7319401143818336
:1019D00070470A460021818B4FF6FF3319404FF6BE
:1019E000FF7303EA02231943818370470A460021EB
:1019F000018B4FF67F7319401143018370470A46EC
:101A00000021018BC1F30E014FF6FF7303EA02239D
:101A10001943018370470A460021818B4FF67F737B
:101A200019401143818370470A460021818BC1F31D
:101A30000E014FF6FF7303EA0223194381837047B7
:101A40000A460021018C4FF6FD73194011430184B1
:101A500070470A460021018C4FF6F7731940114375
:101A6000018470470A460021018C4FF6DF7319404C
:101A70004FF6FF7303EA02131943018470470A46C5
:101A80000021018C4FF67F7319404FF6FF7303EA74
:101A900002131943018470470A460021018C4FF656
:101AA000FF5319404FF6FF7303EA022319430184E1
:101AB00070470A460021018C4FF2FF7319404FF620
:101AC000FF7303EA02231943018470470A46002189
:101AD000018C4DF6FF7319404FF6FF7303EA023392
:101AE00019430184704730B5002301248C40A3B210
:101AF000048C9C430484048C02FA01F5ADB22C439F
:101B0000048430BD30B5002304248C40A3B2048C7F
:101B10009C430484048C02FA01F5ADB22C43048486
:101B200030BD70B50346002000241846183001254A
:101B30008D40ACB21D8CA5431D8409B1082909D183
:101B400000EB6100056825F0700505600568154328
:101B500005600EE00D1FC5F34E052844056825F409
:101B6000E045056005684FF6FF7606EA0226354334
:101B7000056070BD21B1028842F00202028004E0DB
:101B800002884FF6FD731A400280704721B1028827
:101B900042F00402028004E002884FF6FB731A4010
:101BA0000280704721B1828842F08002828004E086
:101BB00082884FF67F731A408280704702884FF602
:101BC000F7731A40028002880A43028070478288B5
:101BD0004FF68F731A40828082880A438280704752
:101BE00002894FF6F8731A40028102890A43028182
:101BF000704702894FF67F731A40028102890A43B7
:101C00000281704781847047818570478186704763
:101C10000187704781877047A0F84010704702889D
:101C20004FF6FF431A40028002880A430280704741
:101C30000146888E70470146088F70470146888F9D
:101C400070470146B1F8400070470146888C7047E4
:101C50000146088D704702460020138A0B4201D0CE
:101C6000012000E000207047CA430282704730B56F
:101C70000246002000230024158A05EA0103958905
:101C800005EA010413B10CB1012000E0002030BDD1
:101C9000CA4302827047000010B50446FB488442E4
:101CA00009D101218803FFF79BF800214FF4804000
:101CB000FFF796F832E0F648844209D10121480442
:101CC000FFF79BF800214FF40030FFF796F825E06E
:101CD000F048844209D101218804FFF78EF80021E1
:101CE0004FF48020FFF789F818E0EB48844209D1CF
:101CF0000121C804FFF781F800214FF40020FFF70D
:101D00007CF80BE0E548844208D101210805FFF783
:101D100074F800214FF48010FFF76FF810BD2DE923
:101D2000F04786B005460E460024A24600BFA146F5
:101D30000027B08900B100BF2F462C8A4CF6FF70F7
:101D40000440F08804432C82AC894EF6F310044022
:101D5000B08831890843718908430443AC81AC8A57
:101D60004FF6FF400440B0890443AC8201A8FEF75F
:101D7000B0FFC648874202D1DDF810A001E0DDF8CF
:101D80000CA0A88910F4004F08D00AEBCA0000EBA1
:101D90000A1031684900B0FBF1F807E00AEBCA000D
:101DA00000EB0A1031688900B0FBF1F86420B8FB41
:101DB000F0F004012009642101FB1089A88910F4C6
:101DC000004F08D0322000EBC900B0FBF1F000F06A
:101DD0000700044308E0322000EB09106421B0FB47
:101DE000F1F000F00F0004432C8106B0BDE8F0874D
:101DF0004FF41651016000218180C18001810C21C6
:101E0000418100218181704710B502460020108A6F
:101E10004FF2FF0318400B884C8823438C882343E0
:101E2000CC8823431843108210BD002101804180DB
:101E30008180C180704721B1828942F40052828141
:101E400004E082894DF6FF731A4082817047F0B535
:101E500003460024002600250020A1F510676A3FF4
:101E600000D100BF1846C1F3421401F01F0601273C
:101E700007FA06F5012C01D10C3004E0022C01D147
:101E8000103000E014301AB107682F43076002E0F9
:101E90000768AF430760F0BD1AB1838A0B438382A2
:101EA00002E0838A8B4383827047028A4FF6F07385
:101EB0001A400282028A0A430282704782894FF2E4
:101EC000FF731A40828182890A438281704721B15F
:101ED000828942F00202828104E082894FF6FD731A
:101EE0001A4082817047028A4FF6DF731A400282DD
:101EF000028A0A430282704721B1028A42F4804278
:101F0000028204E0028A4BF6FF731A400282704795
:101F1000C1F308028280704701468888C0F3080038
:101F20007047818941F0010181817047028BD2B2F3
:101F30000283028B42EA012202837047028B02F481
:101F40007F420283028B0A430283704721B1828A57
:101F500042F02002828204E0828A4FF6DF731A4048
:101F60008282704721B1828A42F01002828204E0AC
:101F7000828A4FF6EF731A408282704721B1828ABB
:101F800042F00802828204E0828A4FF6F7731A4018
:101F90008282704721B1828942F40042828103E04B
:101FA0008289C2F30E028281704721B1828A42F493
:101FB0000062828204E0828A4FF2FF731A408282BA
:101FC0007047828A4FF6FB731A408282828A0A43E4
:101FD0008282704721B1828A42F00202828204E04A
:101FE000828A4FF6FD731A408282704702460020B3
:101FF000B1F5007F00D100BF13880B4201D0012052
:1020000000E00020704701F40072B2F5007F00D1BB
:1020100000BFCA430280704770B502460024002307
:1020200000250020A1F510666A3E00D100BFC1F373
:10203000421501F01F03012606FA03F3012D02D118
:102040009689334006E0022D02D1168A334001E022
:10205000968A33400C12012606FA04F4168834409E
:1020600013B10CB1012000E0002070BD10B50022BA
:102070000023A1F510646A3C00D100BF0A120124BC
:102080009440A3B2DC43048010BD0000003801403E
:102090000044004000480040004C00400050004018
:1020A0007FB505460C4601210420FEF78CFEADF8F5
:1020B0000850ADF804400020ADF80A00ADF8060065
:1020C00001A94848FEF7AEFF012211464548FFF737
:1020D00020FB1E208DF8000002208DF80100032057
:1020E0008DF8020001208DF803006846FEF72FFAF4
:1020F00001213C48FFF7F2FA7FBD7FB505460C464B
:1021000001210820FEF75FFEADF80850ADF804404D
:102110000020ADF80A00ADF8060001A93248FEF72C
:1021200081FF012211463048FFF7F3FA32208DF883
:10213000000002208DF801008DF8020001208DF8CA
:1021400003006846FEF703FA01212748FFF7C6FAA5
:102150007FBD10B501212348FFF789FD28B1012279
:1021600040F227712148FFF772FE01211D48FFF759
:102170008FFD10BD70B500240025FEF7A3F91C49A2
:102180001C4A127821F812001A480078401C19499C
:10219000087008460078142190FBF1F201FB120050
:1021A0001449087000BF06E0114830F814002844B4
:1021B00085B2601CC4B2142CF6DB284670BD10B585
:1021C00001210948FFF753FD30B1FFF7D3FF044663
:1021D000FEF77FF9FEF779F901210348FFF758FD73
:1021E00010BD000000080040000C0040004400400A
:1021F000A60000203D00002000B585B0012104208C
:10220000FEF7D4FD01214807FEF7DDFD1020ADF8F3
:10221000100000208DF8130003208DF8120004A98F
:102220005948FEF711FB10215748FEF7B8FB002074
:102230000090019002900220039069460020FEF772
:10224000FAF901210020FEF713FA00210846FEF7F3
:1022500070FA05B000BD2DE9F0470446204600F0B5
:10226000B9FE8146484600F05DFE07460022474B16
:1022700000F0ACFC054600F077FC81464449484636
:1022800000F0F0FE824600F04DFE07464FF0663249
:10229000404B00F09BFC054600F066FC81463C4943
:1022A000484600F0ABFF01D2DFF8E490484600F06A
:1022B00071FE85B229460020FEF73BFABDE8F087A3
:1022C00000B585B001210420FEF770FD012148070B
:1022D000FEF779FD2020ADF8100000208DF81300E6
:1022E00003208DF8120004A92748FEF7ADFA20213B
:1022F0002548FEF754FB0020009001900290022038
:10230000039069461020FEF796F901211020FEF790
:10231000AFF900210846FEF713FA05B000BD2DE91C
:10232000F0470446204600F055FE8146484600F03E
:10233000F9FD07460022154B00F048FC054600F069
:1023400013FC81461249484600F08CFE824600F09C
:10235000E9FD07464FF066320E4B00F037FC0546AC
:1023600000F002FC81460A49484600F047FF01D2CE
:10237000DFF81C90484600F00DFE85B2294600208B
:10238000FEF7DEF9BDE8F0870008014000408F400D
:1023900000F07F4566660A4030B585B005460C46BC
:1023A00001210846FEF70FFD01210420FEF7FEFC87
:1023B0000220ADF8100004208DF8130004A94E4847
:1023C000FEF742FA02214C48FEF7EBFAADF808504E
:1023D000ADF804400020ADF80A00ADF8060001A9F0
:1023E0004FF08040FEF71EFE042044490880002084
:1023F0004880012088800020C88008814FF08040FC
:10240000FFF7A3F81C208DF8000001208DF80100D3
:102410008DF802008DF803006846FEF798F8012257
:1024200005218807FFF775F901218807FFF756F99D
:1024300005B030BD324A42F8210070470022002129
:1024400005E02F4850F821000244481CC1B20A2977
:10245000F7DB0A20B2FBF0F0704710B501218807C6
:10246000FFF705FC78B127480088401C2549088003
:1024700008460088402802DD2348FDF7F8FF4FF6A4
:10248000FF702249088004210807FFF7F0FB70B3B2
:102490004FF08040FFF7CFFB1C4908801C480078B4
:1024A0000A280BD1FFF7CAFF1A49086008460068DE
:1024B000FDF7DDFF0020164908700EE0114909887C
:1024C000124A128802EB014011490978FFF7B2FF66
:1024D0000F480078401C0E49087000200949088008
:1024E0000A49088000214FF08040FFF78BFB05214F
:1024F0008807FFF7CDFB10BD00080140F800002061
:10250000D00000204000002000A24A044800002023
:10251000430000204400002030B585B005460C463D
:1025200001210220FEF74FFC01211020FEF73EFCA6
:1025300001210846FEF73AFC01213248FEF753FA22
:102540008020ADF8100004208DF8130004A92E4857
:10255000FEF77AF980212C48FEF723FAADF80850EF
:10256000ADF804400020ADF80A00ADF8060001A95E
:102570002648FEF757FD04202549088000204880A2
:10258000012088800020C88008812048FEF7DDFFF8
:102590001D208DF8000001208DF8010000208DF82D
:1025A000020001208DF803006846FDF7D0FF0122EC
:1025B00005211648FFF7ADF801211448FFF78EF802
:1025C00005B030BD10B504211048FFF750FB98B19D
:1025D0001048007848B100200E49087000210B48CF
:1025E000FFF740FAFDF768FF06E00120094908708F
:1025F00002210648FFF736FA05210448FFF748FB99
:1026000010BD0000000C1A00001001400004004042
:10261000020100204C00002008B501214020FEF7F7
:10262000C5FB10208DF8030003208DF80200042064
:10263000ADF8000069460948FEF706F9042107488D
:10264000FEF7ADF90820ADF8000069460348FEF733
:10265000FBF808210148FEF7A2F908BD0018014067
:1026600010B54FF4A060FDF76DFF10BD10B56FF011
:102670000400FDF7B7FF2D4800682D49B0FBF1F0CD
:102680002C4908700846007800EB4001C1EBC010EF
:102690004FF6FF7101EAC0002749088010BD0146CE
:1026A000244A12784A434FF0E0235A6100229A618B
:1026B0001A46126942F001021A6100BF4FF0E0228F
:1026C000106910F0010F02D010F4803FF6D04FF0E7
:1026D000E022126922F001024FF0E0231A61002289
:1026E0009A6170470146144A12884A434FF0E0232A
:1026F0005A6100229A611A46126942F001021A6177
:1027000000BF4FF0E022106910F0010F02D010F46A
:10271000803FF6D04FF0E022126922F001024FF024
:10272000E0231A6100229A61704700000000002037
:1027300000127A00500000205200002010B586B030
:10274000044601214804FEF73EFB01212020FEF74C
:102750002DFB01210846FEF729FB01210820FEF789
:1027600042F92020ADF8140003208DF8160018203F
:102770008DF8170005A9D148FEF766F84020ADF89E
:10278000140004208DF8170005A9CC48FEF75CF86A
:1027900026208DF8000003208DF801008DF802003E
:1027A00001208DF803006846FDF7D1FE019400205A
:1027B000ADF80800ADF80A00ADF80C00ADF8100057
:1027C0000C20ADF80E0001A9BD48FFF7A8FA0122C0
:1027D00040F22551BA48FFF73AFB0121B848FFF70C
:1027E0002AFB06B010BD70B504460D4616460A2EEB
:1027F00050D2DFE806F0050A121A222A2F373F4787
:102800005021AF48FFF784FB45E0AE4800EB1430A1
:102810000178AB48FFF77CFB3DE0AA48C4F30322F4
:10282000815CA748FFF774FB35E0A648C4F30312A8
:10283000815CA348FFF76CFB2DE004F00F00A14A78
:10284000115C9F48FFF764FB25E051219C48FFF78E
:102850005FFB20E09B4800EB153001789848FFF7BC
:1028600057FB18E09748C5F30322815C9448FFF7B3
:102870004FFB10E09348C5F30312815C9048FFF7CB
:1028800047FB08E005F00F008E4A115C8C48FFF70B
:102890003FFB00E000BF00BF70BD70B504460D46B1
:1028A000092D4CD2DFE805F0050A131B232B333B1F
:1028B000430050218248FFF72BFB00BF0F2000EAA6
:1028C0001470804A115C7E48FFF722FB38E07D4897
:1028D000C4F30362815C7A48FFF71AFB30E0794861
:1028E000C4F30352815C7648FFF712FB28E0754879
:1028F000C4F30342815C7248FFF70AFB20E0714891
:10290000C4F30332815C6E48FFF702FB18E06D48A8
:10291000C4F30322815C6A48FFF7FAFA10E06948C1
:10292000C4F30312815C6648FFF7F2FA08E004F092
:102930000F00644A115C6248FFF7EAFA00E000BF4A
:1029400000BF70BD10B540F225515D48FFF764FB34
:1029500020B35B48FFF7E0FAC4B2142C08DC002C6B
:1029600006DD611E584A32F81100FFF774FC15E0CD
:10297000202C09DD342C07DCA4F12101524A32F865
:102980001100FFF7CCFC09E01CB90020FFF763FC45
:1029900004E0202C02D10020FFF7C1FC40F2277197
:1029A0004748FFF739FB20B3FDF74AFD474909784F
:1029B00088420DDD45480278454801884548008831
:1029C000FFF711FF41480078401C4049087010E0B3
:1029D000002240F227713A48FFF739FA00203B49BC
:1029E0000870FDF74AFD3B490880FDF775FD384941
:1029F000088010BD002038490860384908803849EF
:102A000008700EE037483649097830F8110032492D
:102A1000096808443049086031480078401C304952
:102A200008702F4800781028ECDB2F480078401CF5
:102A30002D4908700878C11700EB11710911A0EB3E
:102A40000111294A117024480068C0F30F1023496E
:102A5000088008460088704700201F4908601F4909
:102A600008801F4908700EE020481D49097830F899
:102A70001100194909680844174908601848007886
:102A8000401C17490870164800781028ECDB1848DD
:102A90000078401C164908700878C11700EB1171C6
:102AA0000911A0EB0111124A11700B480068C0F324
:102AB0000F100A490880084600887047001401403A
:102AC00000440040550000206A000020540000200F
:102AD000680000206600002094000020980000207C
:102AE0009A0000200C010020920000202C01002000
:102AF00093000020704770477047754600F028F833
:102B0000AE4605006946534620F00700854618B0DA
:102B100020B5FDF705FDBDE820404FF000064FF061
:102B200000074FF000084FF0000B21F00701AC4602
:102B3000ACE8C009ACE8C009ACE8C009ACE8C00921
:102B40008D4670470446AFF300802046FDF737FB03
:102B5000004870474C01002001491820ABBEFEE739
:102B6000260002007047000021F00042A2F16052EE
:102B7000B2F5801F01F0004328BFD2F17F6C0BD962
:102B80005FEA001C43EAC20242EB507018BF704774
:102B900028BF20F001007047B2F5801FBCBF184667
:102BA00070474FEA410C1CF5001F02D2084600F0A6
:102BB00020BB70B500F062F900000089FFF7F6BF96
:102BC0004FF00040A0F58000704700002DE9C041A3
:102BD00030B4DFF8A0C23CEA111418BF3CEA131469
:102BE00000F0EC8081EA03051CEA111444EAD57474
:102BF00018BF1CEA131500F0C780A4EB05044FF0C2
:102C0000004545EAC12145EAC32341EA505143EA60
:102C1000525304F17F74994204F500344FEAC02006
:102C20004FEAC22208BF904200F09C804FEA136531
:102C30000FF24016765D4FEA134506FB05F7C7F124
:102C4000807706FB07F74FEAD737A7FB0368764282
:102C5000C8F58038A7FB06CE38BFA8F1010807FBEE
:102C600008E64FF0000EA6FB028CE6FB03CEDCF17B
:102C7000000CCEF1004E38BFAEF1010EA6FB0C5891
:102C80004FF000074FF00005E6FB0E87A1FB08C6DA
:102C9000A0FB07CE16EB0E0645F10005E1FB07652C
:102CA00015F1E04E7EBFA4F580345FEA46066D4123
:102CB00016F1800745F100054FEA17274FEA06662F
:102CC00047EA0567A6F1DE46B6F1805F4FEA1525B3
:102CD0001FD9384624F0010C05EBC471BCF1FE6F1E
:102CE00001EB0C1102D8F0BCBDE8008124425CBFAE
:102CF00001F5801E9EEAC47F02D4F0BCBDE80081CD
:102D0000244238D4F0BCA1F1C041BDE8004100F03C
:102D100003B94FEAD22242EA43524FEAD323A7FB38
:102D200002864FEAD02040EA415007FB03661EEAC4
:102D30000E0F4FEAD12105FB026658BFA6EB0056E5
:102D4000B6EB00564FEA520E4EEAC37E18EB0E0E5B
:102D500056EB530EBDD518EB02085E417F1C55F1B2
:102D60000005B6E74FF480154FF000074FF000065E
:102D70004FF00008ADE7F0BC4FF0000001F1C0419A
:102D800001F00041BDE8008111EA0C1F0CEA1315A7
:102D900000D00CE013EA0C1F00F025804FF000007B
:102DA000F0BC81EA030101F00041BDE80081F0BC04
:102DB000BDE8004181EA030100F0AEB8F0BCBDE817
:102DC000004170B500F05AF8097EFC3E00F007B8EB
:102DD00081EA03014FF0000001F00041704781EAF1
:102DE000030100F099B8F0BCBDE800414FF00000CD
:102DF00021497047FFFDFBF9F7F5F4F2F0EEEDEB3A
:102E0000E9E8E6E4E3E1E0DEDDDBDAD8D7D5D4D3E8
:102E1000D1D0CFCDCCCBCAC8C7C6C5C4C2C1C0BF34
:102E2000BEBDBCBBBAB9B8B7B6B5B4B3B2B1B0AF3A
:102E3000AEADACABAAA9A8A8A7A6A5A4A3A3A2A11E
:102E4000A09F9F9E9D9C9C9B9A99999897979695D9
:102E500095949393929191908F8F8E8E8D8C8C8B75
:102E60008B8A8989888887878685858484838382FD
:102E7000828181800000FF070000F87F0EF1020EC2
:102E80002EF0030E5EF8046B364205D4012A43EBA4
:102E9000030515F5001F12D8012841EB010C1CF5A4
:102EA000001F0CD80ED14FEAD17C15F5001F0CEB9A
:102EB0004C0C0CF1020C08BF4CEBD37C04E04FF03F
:102EC000080C01E04FEAD37C0CEB4C0526FA05F622
:102ED00006F00706B6F1040C06D20EEB860CBDE830
:102EE00070404CF0010C6047DFE80CF0090B020267
:102EF0004FF000414FF00000A1F5002170BD1946D0
:102F00001046012851EB010418BFD4F5001484BF0A
:102F1000002001F0004170BD0808A0F500114FEA43
:102F20003101704743004FEAD30C4FEA3C0C434059
:102F30001FBF40070CF1605113F0FE4F70471CF0AB
:102F4000006F03D100200CF0004170470CF00043EB
:102F500043EA507010B540EACC0000F004F900BF1D
:102F6000000000924FEA0001FFF7D6BF4FF000418A
:102F70004FF00000A1F500217047401058BFC0F18C
:102F80004040491058BFC1F140418142EFF30080F9
:102F900070470000C10DD1F19E0206DB4FEA00230D
:102FA00043F0004323FA02F07047004207D54FEA8E
:102FB0004001B1F1FE4F02D24FF00000704710B552
:102FC00000F0D1F849922480002070476FEA200079
:102FD00070470000B0FA80F310FA03F2C3F19D03CA
:102FE0000AD0D90501EB1220530638BF704700F113
:102FF000010008BF20F001007047000050EA010CFA
:1030000000F113801CF5000F58BFBCF5000F01D470
:103010008842704707D710F5000F58BF11F5000F11
:1030200015D488427047894270471CF5000F04D5BB
:10303000BCF5000FF7D5814270474FF0807C1CEB48
:10304000400F38BF1CEB410F01D28142704710B5D1
:1030500000F089F8922449004FF000504FF0805161
:10306000FFF78BBF4FF47F0C1CEAD0121EBF1CEA87
:10307000D11392EA0C0F93EA0C0F00F0478090EA0C
:10308000010F48BF42F480724FF0004C4CEA002020
:103090004CEA012102EB0302A0FB0113A2F500029E
:1030A000002918BF43F001035B0028BF4FEA330338
:1030B00042EB22425FEA132C4CEBC2502EBFBCEB1A
:1030C000436FB2F57C0F70474FEA036CBCF1004FC1
:1030D00008BF20F00100B2F57C0F38BF70470BD558
:1030E00082F0FF0212F5803FC8BF704700F1C04078
:1030F000D8BF00F00040704700F5000C5FEA4C0CB0
:1031000048BF7047B0F1C04000F073B890EA010FBB
:103110000CEAD11348BF42F48072624538BF634560
:1031200004D280EA010000F00040704710B500F0C2
:103130001AF800BF8900013E00F007B800F009B896
:103140005FEA410C5FEA1C6C08D080EA010000F0E5
:1031500050B85FEA400C5FEA1C6CF6D14FF00040BB
:10316000A0F5800070470EF1020E2EF0030E5EF8FF
:10317000044B244204D44FEA4102B2F17F4F11D8EC
:103180004FEA4003B3F17F4F0CD80ED14FEAD07C09
:10319000B2F17F4F0CEB4C0C0CF1020C08BF4CEB66
:1031A000D17C04E04FF0080C01E04FEAD17C0CEB3D
:1031B0004C0324FA03F404F00704B4F1040C06D21F
:1031C0000EEB840CBDE810404CF0010C6047DFE8CA
:1031D0000CF0070802024FF00040A0F5800010BD7F
:1031E0000846420018BFD2F1807288BF00F000404C
:1031F00010BDFF2141EAD050C005704751EA000CD4
:1032000000F113801CF5000F58BFBCF5000F01D46E
:103210008142704707D711F5000F58BF10F5000F16
:1032200015D481427047894270471CF5000F04D5C0
:10323000BCF5000FF7D5884270474FF0807C1CEB3F
:10324000410F38BF1CEB400F01D28842704780EA23
:10325000010081EA000180EA0100FFF7F8BE0000EA
:1032600080320008000000209C0000006C01000873
:103270001C3300089C00002014070000880100088F
:1032800000A24A0400000000000000000102030444
:103290000607080900000000000000000000000010
:1032A0000000000000000000000000000102030414
:1032B00001020304060708090204060800000000D2
:1032C00000000000000000000000000000000000FE
:1032D00000000000003031323334353637383941A0
:1032E00042434445460000000000A5004A01EF01AA
:1032F00094023903DE0383042805CD0572061707FF
:10330000BC0761080609AB09500AF50A9A0B3F0C85
:0C331000E40C00000000000000000000C1
:0400000508000131BD
:00000001FF
